{
  "contractName": "DappFumi",
  "abi": [
    {
      "inputs": [],
      "stateMutability": "nonpayable",
      "type": "constructor"
    },
    {
      "anonymous": false,
      "inputs": [
        {
          "indexed": false,
          "internalType": "address",
          "name": "buyer",
          "type": "address"
        },
        {
          "indexed": false,
          "internalType": "uint256",
          "name": "amountOfEth",
          "type": "uint256"
        },
        {
          "indexed": false,
          "internalType": "uint256",
          "name": "amountOfTokens",
          "type": "uint256"
        }
      ],
      "name": "BuyTokens",
      "type": "event"
    },
    {
      "anonymous": false,
      "inputs": [
        {
          "indexed": true,
          "internalType": "address",
          "name": "previousOwner",
          "type": "address"
        },
        {
          "indexed": true,
          "internalType": "address",
          "name": "newOwner",
          "type": "address"
        }
      ],
      "name": "OwnershipTransferred",
      "type": "event"
    },
    {
      "anonymous": false,
      "inputs": [
        {
          "indexed": false,
          "internalType": "uint256",
          "name": "token",
          "type": "uint256"
        }
      ],
      "name": "newDronToken",
      "type": "event"
    },
    {
      "anonymous": false,
      "inputs": [
        {
          "indexed": false,
          "internalType": "uint256",
          "name": "token",
          "type": "uint256"
        }
      ],
      "name": "newParcelaToken",
      "type": "event"
    },
    {
      "anonymous": false,
      "inputs": [
        {
          "indexed": false,
          "internalType": "uint256",
          "name": "amountToBuy",
          "type": "uint256"
        },
        {
          "indexed": false,
          "internalType": "uint256",
          "name": "vendorbalance",
          "type": "uint256"
        }
      ],
      "name": "prueba",
      "type": "event"
    },
    {
      "inputs": [],
      "name": "AddrDronToken",
      "outputs": [
        {
          "internalType": "address",
          "name": "",
          "type": "address"
        }
      ],
      "stateMutability": "view",
      "type": "function",
      "constant": true
    },
    {
      "inputs": [],
      "name": "AddrParcelaToken",
      "outputs": [
        {
          "internalType": "address",
          "name": "",
          "type": "address"
        }
      ],
      "stateMutability": "view",
      "type": "function",
      "constant": true
    },
    {
      "inputs": [
        {
          "internalType": "uint256",
          "name": "",
          "type": "uint256"
        }
      ],
      "name": "_DronDetails",
      "outputs": [
        {
          "internalType": "uint256",
          "name": "MaxHeight",
          "type": "uint256"
        },
        {
          "internalType": "uint256",
          "name": "MinHeight",
          "type": "uint256"
        },
        {
          "internalType": "uint256",
          "name": "idToken",
          "type": "uint256"
        },
        {
          "internalType": "address",
          "name": "dir",
          "type": "address"
        },
        {
          "internalType": "bool",
          "name": "flagCondi",
          "type": "bool"
        },
        {
          "internalType": "uint256",
          "name": "CostxM",
          "type": "uint256"
        }
      ],
      "stateMutability": "view",
      "type": "function",
      "constant": true
    },
    {
      "inputs": [
        {
          "internalType": "uint256",
          "name": "",
          "type": "uint256"
        }
      ],
      "name": "_ParcelaDetails",
      "outputs": [
        {
          "internalType": "uint256",
          "name": "MaxHeight",
          "type": "uint256"
        },
        {
          "internalType": "uint256",
          "name": "MinHeight",
          "type": "uint256"
        },
        {
          "internalType": "uint256",
          "name": "idToken",
          "type": "uint256"
        },
        {
          "internalType": "address",
          "name": "dir",
          "type": "address"
        },
        {
          "internalType": "bool",
          "name": "flagCondi",
          "type": "bool"
        }
      ],
      "stateMutability": "view",
      "type": "function",
      "constant": true
    },
    {
      "inputs": [],
      "name": "owner",
      "outputs": [
        {
          "internalType": "address",
          "name": "",
          "type": "address"
        }
      ],
      "stateMutability": "view",
      "type": "function",
      "constant": true
    },
    {
      "inputs": [],
      "name": "renounceOwnership",
      "outputs": [],
      "stateMutability": "nonpayable",
      "type": "function"
    },
    {
      "inputs": [],
      "name": "tokensPerEth",
      "outputs": [
        {
          "internalType": "uint256",
          "name": "",
          "type": "uint256"
        }
      ],
      "stateMutability": "view",
      "type": "function",
      "constant": true
    },
    {
      "inputs": [
        {
          "internalType": "address",
          "name": "newOwner",
          "type": "address"
        }
      ],
      "name": "transferOwnership",
      "outputs": [],
      "stateMutability": "nonpayable",
      "type": "function"
    },
    {
      "inputs": [
        {
          "internalType": "address",
          "name": "to",
          "type": "address"
        },
        {
          "internalType": "uint256",
          "name": "CostxM",
          "type": "uint256"
        },
        {
          "internalType": "uint256",
          "name": "MaxHeight",
          "type": "uint256"
        },
        {
          "internalType": "uint256",
          "name": "MinHeight",
          "type": "uint256"
        },
        {
          "internalType": "string[]",
          "name": "Pesti",
          "type": "string[]"
        }
      ],
      "name": "createDron",
      "outputs": [
        {
          "internalType": "uint256",
          "name": "",
          "type": "uint256"
        }
      ],
      "stateMutability": "nonpayable",
      "type": "function"
    },
    {
      "inputs": [
        {
          "internalType": "uint256",
          "name": "Id",
          "type": "uint256"
        }
      ],
      "name": "getDataDron",
      "outputs": [
        {
          "components": [
            {
              "internalType": "uint256",
              "name": "MaxHeight",
              "type": "uint256"
            },
            {
              "internalType": "uint256",
              "name": "MinHeight",
              "type": "uint256"
            },
            {
              "internalType": "string[]",
              "name": "Pesti",
              "type": "string[]"
            },
            {
              "internalType": "uint256",
              "name": "idToken",
              "type": "uint256"
            },
            {
              "internalType": "address",
              "name": "dir",
              "type": "address"
            },
            {
              "internalType": "bool",
              "name": "flagCondi",
              "type": "bool"
            },
            {
              "internalType": "uint256",
              "name": "CostxM",
              "type": "uint256"
            }
          ],
          "internalType": "struct DappFumi.DronData",
          "name": "",
          "type": "tuple"
        }
      ],
      "stateMutability": "view",
      "type": "function",
      "constant": true
    },
    {
      "inputs": [
        {
          "internalType": "uint256",
          "name": "Id",
          "type": "uint256"
        }
      ],
      "name": "RemoveDron",
      "outputs": [],
      "stateMutability": "nonpayable",
      "type": "function"
    },
    {
      "inputs": [],
      "name": "getAllDrones",
      "outputs": [
        {
          "components": [
            {
              "internalType": "uint256",
              "name": "MaxHeight",
              "type": "uint256"
            },
            {
              "internalType": "uint256",
              "name": "MinHeight",
              "type": "uint256"
            },
            {
              "internalType": "string[]",
              "name": "Pesti",
              "type": "string[]"
            },
            {
              "internalType": "uint256",
              "name": "idToken",
              "type": "uint256"
            },
            {
              "internalType": "address",
              "name": "dir",
              "type": "address"
            },
            {
              "internalType": "bool",
              "name": "flagCondi",
              "type": "bool"
            },
            {
              "internalType": "uint256",
              "name": "CostxM",
              "type": "uint256"
            }
          ],
          "internalType": "struct DappFumi.DronData[]",
          "name": "data",
          "type": "tuple[]"
        }
      ],
      "stateMutability": "view",
      "type": "function",
      "constant": true
    },
    {
      "inputs": [
        {
          "internalType": "address",
          "name": "addr",
          "type": "address"
        }
      ],
      "name": "getBalanceOwnerDron",
      "outputs": [
        {
          "internalType": "uint256",
          "name": "",
          "type": "uint256"
        }
      ],
      "stateMutability": "view",
      "type": "function",
      "constant": true
    },
    {
      "inputs": [
        {
          "internalType": "address",
          "name": "to",
          "type": "address"
        },
        {
          "internalType": "uint256",
          "name": "MaxHeight",
          "type": "uint256"
        },
        {
          "internalType": "uint256",
          "name": "MinHeight",
          "type": "uint256"
        },
        {
          "internalType": "string[]",
          "name": "Pesti",
          "type": "string[]"
        }
      ],
      "name": "createParcela",
      "outputs": [
        {
          "internalType": "uint256",
          "name": "",
          "type": "uint256"
        }
      ],
      "stateMutability": "nonpayable",
      "type": "function"
    },
    {
      "inputs": [
        {
          "internalType": "uint256",
          "name": "Id",
          "type": "uint256"
        }
      ],
      "name": "getDataParcela",
      "outputs": [
        {
          "components": [
            {
              "internalType": "uint256",
              "name": "MaxHeight",
              "type": "uint256"
            },
            {
              "internalType": "uint256",
              "name": "MinHeight",
              "type": "uint256"
            },
            {
              "internalType": "string[]",
              "name": "Pesti",
              "type": "string[]"
            },
            {
              "internalType": "uint256",
              "name": "idToken",
              "type": "uint256"
            },
            {
              "internalType": "address",
              "name": "dir",
              "type": "address"
            },
            {
              "internalType": "bool",
              "name": "flagCondi",
              "type": "bool"
            }
          ],
          "internalType": "struct DappFumi.ParcelaData",
          "name": "",
          "type": "tuple"
        }
      ],
      "stateMutability": "view",
      "type": "function",
      "constant": true
    },
    {
      "inputs": [
        {
          "internalType": "uint256",
          "name": "Id",
          "type": "uint256"
        }
      ],
      "name": "RemoveParcela",
      "outputs": [],
      "stateMutability": "nonpayable",
      "type": "function"
    },
    {
      "inputs": [],
      "name": "getAllParcelas",
      "outputs": [
        {
          "components": [
            {
              "internalType": "uint256",
              "name": "MaxHeight",
              "type": "uint256"
            },
            {
              "internalType": "uint256",
              "name": "MinHeight",
              "type": "uint256"
            },
            {
              "internalType": "string[]",
              "name": "Pesti",
              "type": "string[]"
            },
            {
              "internalType": "uint256",
              "name": "idToken",
              "type": "uint256"
            },
            {
              "internalType": "address",
              "name": "dir",
              "type": "address"
            },
            {
              "internalType": "bool",
              "name": "flagCondi",
              "type": "bool"
            }
          ],
          "internalType": "struct DappFumi.ParcelaData[]",
          "name": "data",
          "type": "tuple[]"
        }
      ],
      "stateMutability": "view",
      "type": "function",
      "constant": true
    },
    {
      "inputs": [
        {
          "internalType": "address",
          "name": "addr",
          "type": "address"
        }
      ],
      "name": "getBalanceOwnerParcela",
      "outputs": [
        {
          "internalType": "uint256",
          "name": "",
          "type": "uint256"
        }
      ],
      "stateMutability": "view",
      "type": "function",
      "constant": true
    }
  ],
  "bytecode": "0x60c06040526103e860015573a3c1603766b70dfa3e260451f9e45bc500541d82600560006101000a81548173ffffffffffffffffffffffffffffffffffffffff021916908373ffffffffffffffffffffffffffffffffffffffff1602179055503480156200006c57600080fd5b506200008d62000081620001d060201b60201c565b620001d860201b60201c565b6040516200009b906200029c565b620000a69062000354565b604051809103906000f080158015620000c3573d6000803e3d6000fd5b5073ffffffffffffffffffffffffffffffffffffffff1660808173ffffffffffffffffffffffffffffffffffffffff1660601b815250506040516200010890620002aa565b62000113906200038b565b604051809103906000f08015801562000130573d6000803e3d6000fd5b5073ffffffffffffffffffffffffffffffffffffffff1660a08173ffffffffffffffffffffffffffffffffffffffff1660601b81525050600560009054906101000a900473ffffffffffffffffffffffffffffffffffffffff16600460006101000a81548173ffffffffffffffffffffffffffffffffffffffff021916908373ffffffffffffffffffffffffffffffffffffffff16021790555062000477565b600033905090565b60008060009054906101000a900473ffffffffffffffffffffffffffffffffffffffff169050816000806101000a81548173ffffffffffffffffffffffffffffffffffffffff021916908373ffffffffffffffffffffffffffffffffffffffff1602179055508173ffffffffffffffffffffffffffffffffffffffff168173ffffffffffffffffffffffffffffffffffffffff167f8be0079c531659141344cd1fd0a4f28419497f9722a3daafe3b4186f6b6457e060405160405180910390a35050565b61303e8062002f8f83390190565b61303e8062005fcd83390190565b6000620002c7600d83620003c2565b9150620002d482620003d3565b602082019050919050565b6000620002ee600583620003c2565b9150620002fb82620003fc565b602082019050919050565b600062000315600683620003c2565b9150620003228262000425565b602082019050919050565b60006200033c600f83620003c2565b915062000349826200044e565b602082019050919050565b600060408201905081810360008301526200036f81620002df565b905081810360208301526200038481620002b8565b9050919050565b60006040820190508181036000830152620003a68162000306565b90508181036020830152620003bb816200032d565b9050919050565b600082825260208201905092915050565b7f4e46542064652044726f6e657300000000000000000000000000000000000000600082015250565b7f44524f4e46000000000000000000000000000000000000000000000000000000600082015250565b7f5041524345460000000000000000000000000000000000000000000000000000600082015250565b7f4e46542064652050617263656c61730000000000000000000000000000000000600082015250565b60805160601c60a05160601c612ac2620004cd6000396000818161042e015281816104e401528181610b7f015261182a015260008181610e5e0152818161111f015281816113d801526113fe0152612ac26000f3fe608060405234801561001057600080fd5b50600436106101165760003560e01c80638c9e7b24116100a2578063ce7b8ee911610071578063ce7b8ee914610312578063d3b5650614610330578063db1ae98a1461034c578063e29f759f1461037c578063f2fde38b1461039a57610116565b80638c9e7b24146102765780638da5cb5b146102a6578063b102be64146102c4578063cbdd69b5146102f457610116565b80631c8b650c116100e95780631c8b650c146101d05780633d127d95146101ee57806354db754e1461020c57806359f915921461023c578063715018a61461026c57610116565b80630260cf261461011b5780630559327a1461014f57806308b041831461017f57806308c5fcbf1461019b575b600080fd5b61013560048036038101906101309190611ee4565b6103b6565b6040516101469594939291906125a1565b60405180910390f35b61016960048036038101906101649190611d88565b610429565b604051610176919061255d565b60405180910390f35b61019960048036038101906101949190611ee4565b6104e0565b005b6101b560048036038101906101b09190611ee4565b610726565b6040516101c7969594939291906125f4565b60405180910390f35b6101d861079f565b6040516101e59190612455565b60405180910390f35b6101f6610970565b6040516102039190612477565b60405180910390f35b61022660048036038101906102219190611dda565b610b37565b604051610233919061255d565b60405180910390f35b61025660048036038101906102519190611e55565b610e16565b604051610263919061255d565b60405180910390f35b610274611106565b005b610290600480360381019061028b9190611d88565b61111a565b60405161029d919061255d565b60405180910390f35b6102ae6111d1565b6040516102bb919061243a565b60405180910390f35b6102de60048036038101906102d99190611ee4565b6111fa565b6040516102eb919061253b565b60405180910390f35b6102fc6113d0565b604051610309919061255d565b60405180910390f35b61031a6113d6565b604051610327919061243a565b60405180910390f35b61034a60048036038101906103459190611ee4565b6113fa565b005b61036660048036038101906103619190611ee4565b611648565b6040516103739190612519565b60405180910390f35b610384611828565b604051610391919061243a565b60405180910390f35b6103b460048036038101906103af9190611d88565b61184c565b005b600281815481106103c657600080fd5b90600052602060002090600502016000915090508060000154908060010154908060030154908060040160009054906101000a900473ffffffffffffffffffffffffffffffffffffffff16908060040160149054906101000a900460ff16905085565b6000807f000000000000000000000000000000000000000000000000000000000000000090508073ffffffffffffffffffffffffffffffffffffffff166370a08231846040518263ffffffff1660e01b8152600401610488919061243a565b60206040518083038186803b1580156104a057600080fd5b505afa1580156104b4573d6000803e3d6000fd5b505050506040513d601f19601f820116820180604052508101906104d89190611f0d565b915050919050565b60007f000000000000000000000000000000000000000000000000000000000000000090503373ffffffffffffffffffffffffffffffffffffffff168173ffffffffffffffffffffffffffffffffffffffff16636352211e846040518263ffffffff1660e01b8152600401610555919061255d565b60206040518083038186803b15801561056d57600080fd5b505afa158015610581573d6000803e3d6000fd5b505050506040513d601f19601f820116820180604052508101906105a59190611db1565b73ffffffffffffffffffffffffffffffffffffffff16146105fb576040517f08c379a00000000000000000000000000000000000000000000000000000000081526004016105f2906124b9565b60405180910390fd5b8073ffffffffffffffffffffffffffffffffffffffff166320b4e4ca83336040518363ffffffff1660e01b8152600401610636929190612578565b600060405180830381600087803b15801561065057600080fd5b505af1158015610664573d6000803e3d6000fd5b50505050600260018361067791906127af565b815481106106ae577f4e487b7100000000000000000000000000000000000000000000000000000000600052603260045260246000fd5b906000526020600020906005020160008082016000905560018201600090556002820160006106dd9190611a1a565b60038201600090556004820160006101000a81549073ffffffffffffffffffffffffffffffffffffffff02191690556004820160146101000a81549060ff021916905550505050565b6003818154811061073657600080fd5b90600052602060002090600602016000915090508060000154908060010154908060030154908060040160009054906101000a900473ffffffffffffffffffffffffffffffffffffffff16908060040160149054906101000a900460ff16908060050154905086565b60606003805480602002602001604051908101604052809291908181526020016000905b8282101561096757838290600052602060002090600602016040518060e0016040529081600082015481526020016001820154815260200160028201805480602002602001604051908101604052809291908181526020016000905b828210156108cb57838290600052602060002001805461083e9061286d565b80601f016020809104026020016040519081016040528092919081815260200182805461086a9061286d565b80156108b75780601f1061088c576101008083540402835291602001916108b7565b820191906000526020600020905b81548152906001019060200180831161089a57829003601f168201915b50505050508152602001906001019061081f565b505050508152602001600382015481526020016004820160009054906101000a900473ffffffffffffffffffffffffffffffffffffffff1673ffffffffffffffffffffffffffffffffffffffff1673ffffffffffffffffffffffffffffffffffffffff1681526020016004820160149054906101000a900460ff16151515158152602001600582015481525050815260200190600101906107c3565b50505050905090565b60606002805480602002602001604051908101604052809291908181526020016000905b82821015610b2e57838290600052602060002090600502016040518060c0016040529081600082015481526020016001820154815260200160028201805480602002602001604051908101604052809291908181526020016000905b82821015610a9c578382906000526020600020018054610a0f9061286d565b80601f0160208091040260200160405190810160405280929190818152602001828054610a3b9061286d565b8015610a885780601f10610a5d57610100808354040283529160200191610a88565b820191906000526020600020905b815481529060010190602001808311610a6b57829003601f168201915b5050505050815260200190600101906109f0565b505050508152602001600382015481526020016004820160009054906101000a900473ffffffffffffffffffffffffffffffffffffffff1673ffffffffffffffffffffffffffffffffffffffff1673ffffffffffffffffffffffffffffffffffffffff1681526020016004820160149054906101000a900460ff16151515158152505081526020019060010190610994565b50505050905090565b6000828411610b7b576040517f08c379a0000000000000000000000000000000000000000000000000000000008152600401610b72906124f9565b60405180910390fd5b60007f0000000000000000000000000000000000000000000000000000000000000000905060008173ffffffffffffffffffffffffffffffffffffffff1663aab797a8886040518263ffffffff1660e01b8152600401610bdb919061243a565b602060405180830381600087803b158015610bf557600080fd5b505af1158015610c09573d6000803e3d6000fd5b505050506040513d601f19601f82011682018060405250810190610c2d9190611f0d565b905060008273ffffffffffffffffffffffffffffffffffffffff16636352211e836040518263ffffffff1660e01b8152600401610c6a919061255d565b60206040518083038186803b158015610c8257600080fd5b505afa158015610c96573d6000803e3d6000fd5b505050506040513d601f19601f82011682018060405250810190610cba9190611db1565b905060026040518060c001604052808981526020018881526020018781526020018481526020018373ffffffffffffffffffffffffffffffffffffffff16815260200160001515815250908060018154018082558091505060019003906000526020600020906005020160009091909190915060008201518160000155602082015181600101556040820151816002019080519060200190610d5d929190611a3b565b506060820151816003015560808201518160040160006101000a81548173ffffffffffffffffffffffffffffffffffffffff021916908373ffffffffffffffffffffffffffffffffffffffff16021790555060a08201518160040160146101000a81548160ff02191690831515021790555050507f7e0f188a5688745b4bb4767fe4ae5ee7d511bb79e6eb84d61bd83c2fa9db42fa82604051610e00919061255d565b60405180910390a1819350505050949350505050565b6000828411610e5a576040517f08c379a0000000000000000000000000000000000000000000000000000000008152600401610e51906124f9565b60405180910390fd5b60007f0000000000000000000000000000000000000000000000000000000000000000905060008173ffffffffffffffffffffffffffffffffffffffff166314a044d4896040518263ffffffff1660e01b8152600401610eba919061243a565b602060405180830381600087803b158015610ed457600080fd5b505af1158015610ee8573d6000803e3d6000fd5b505050506040513d601f19601f82011682018060405250810190610f0c9190611f0d565b905060008273ffffffffffffffffffffffffffffffffffffffff16636352211e836040518263ffffffff1660e01b8152600401610f49919061255d565b60206040518083038186803b158015610f6157600080fd5b505afa158015610f75573d6000803e3d6000fd5b505050506040513d601f19601f82011682018060405250810190610f999190611db1565b905060036040518060e001604052808981526020018881526020018781526020018481526020018373ffffffffffffffffffffffffffffffffffffffff1681526020016000151581526020018a815250908060018154018082558091505060019003906000526020600020906006020160009091909190915060008201518160000155602082015181600101556040820151816002019080519060200190611042929190611a3b565b506060820151816003015560808201518160040160006101000a81548173ffffffffffffffffffffffffffffffffffffffff021916908373ffffffffffffffffffffffffffffffffffffffff16021790555060a08201518160040160146101000a81548160ff02191690831515021790555060c0820151816005015550507f9b53320d52863f9e2638ecd3e49dac3106376ad60887ae85a897848c05682636826040516110ef919061255d565b60405180910390a181935050505095945050505050565b61110e6118d0565b611118600061194e565b565b6000807f000000000000000000000000000000000000000000000000000000000000000090508073ffffffffffffffffffffffffffffffffffffffff166370a08231846040518263ffffffff1660e01b8152600401611179919061243a565b60206040518083038186803b15801561119157600080fd5b505afa1580156111a5573d6000803e3d6000fd5b505050506040513d601f19601f820116820180604052508101906111c99190611f0d565b915050919050565b60008060009054906101000a900473ffffffffffffffffffffffffffffffffffffffff16905090565b611202611a9b565b600260018361121191906127af565b81548110611248577f4e487b7100000000000000000000000000000000000000000000000000000000600052603260045260246000fd5b90600052602060002090600502016040518060c0016040529081600082015481526020016001820154815260200160028201805480602002602001604051908101604052809291908181526020016000905b828210156113465783829060005260206000200180546112b99061286d565b80601f01602080910402602001604051908101604052809291908181526020018280546112e59061286d565b80156113325780601f1061130757610100808354040283529160200191611332565b820191906000526020600020905b81548152906001019060200180831161131557829003601f168201915b50505050508152602001906001019061129a565b505050508152602001600382015481526020016004820160009054906101000a900473ffffffffffffffffffffffffffffffffffffffff1673ffffffffffffffffffffffffffffffffffffffff1673ffffffffffffffffffffffffffffffffffffffff1681526020016004820160149054906101000a900460ff1615151515815250509050919050565b60015481565b7f000000000000000000000000000000000000000000000000000000000000000081565b60007f000000000000000000000000000000000000000000000000000000000000000090503373ffffffffffffffffffffffffffffffffffffffff168173ffffffffffffffffffffffffffffffffffffffff16636352211e846040518263ffffffff1660e01b815260040161146f919061255d565b60206040518083038186803b15801561148757600080fd5b505afa15801561149b573d6000803e3d6000fd5b505050506040513d601f19601f820116820180604052508101906114bf9190611db1565b73ffffffffffffffffffffffffffffffffffffffff1614611515576040517f08c379a000000000000000000000000000000000000000000000000000000000815260040161150c906124b9565b60405180910390fd5b8073ffffffffffffffffffffffffffffffffffffffff1663b812f28483336040518363ffffffff1660e01b8152600401611550929190612578565b600060405180830381600087803b15801561156a57600080fd5b505af115801561157e573d6000803e3d6000fd5b50505050600360018361159191906127af565b815481106115c8577f4e487b7100000000000000000000000000000000000000000000000000000000600052603260045260246000fd5b906000526020600020906006020160008082016000905560018201600090556002820160006115f79190611a1a565b60038201600090556004820160006101000a81549073ffffffffffffffffffffffffffffffffffffffff02191690556004820160146101000a81549060ff0219169055600582016000905550505050565b611650611ae9565b600360018361165f91906127af565b81548110611696577f4e487b7100000000000000000000000000000000000000000000000000000000600052603260045260246000fd5b90600052602060002090600602016040518060e0016040529081600082015481526020016001820154815260200160028201805480602002602001604051908101604052809291908181526020016000905b828210156117945783829060005260206000200180546117079061286d565b80601f01602080910402602001604051908101604052809291908181526020018280546117339061286d565b80156117805780601f1061175557610100808354040283529160200191611780565b820191906000526020600020905b81548152906001019060200180831161176357829003601f168201915b5050505050815260200190600101906116e8565b505050508152602001600382015481526020016004820160009054906101000a900473ffffffffffffffffffffffffffffffffffffffff1673ffffffffffffffffffffffffffffffffffffffff1673ffffffffffffffffffffffffffffffffffffffff1681526020016004820160149054906101000a900460ff161515151581526020016005820154815250509050919050565b7f000000000000000000000000000000000000000000000000000000000000000081565b6118546118d0565b600073ffffffffffffffffffffffffffffffffffffffff168173ffffffffffffffffffffffffffffffffffffffff1614156118c4576040517f08c379a00000000000000000000000000000000000000000000000000000000081526004016118bb90612499565b60405180910390fd5b6118cd8161194e565b50565b6118d8611a12565b73ffffffffffffffffffffffffffffffffffffffff166118f66111d1565b73ffffffffffffffffffffffffffffffffffffffff161461194c576040517f08c379a0000000000000000000000000000000000000000000000000000000008152600401611943906124d9565b60405180910390fd5b565b60008060009054906101000a900473ffffffffffffffffffffffffffffffffffffffff169050816000806101000a81548173ffffffffffffffffffffffffffffffffffffffff021916908373ffffffffffffffffffffffffffffffffffffffff1602179055508173ffffffffffffffffffffffffffffffffffffffff168173ffffffffffffffffffffffffffffffffffffffff167f8be0079c531659141344cd1fd0a4f28419497f9722a3daafe3b4186f6b6457e060405160405180910390a35050565b600033905090565b5080546000825590600052602060002090810190611a389190611b3e565b50565b828054828255906000526020600020908101928215611a8a579160200282015b82811115611a89578251829080519060200190611a79929190611b62565b5091602001919060010190611a5b565b5b509050611a979190611b3e565b5090565b6040518060c0016040528060008152602001600081526020016060815260200160008152602001600073ffffffffffffffffffffffffffffffffffffffff1681526020016000151581525090565b6040518060e0016040528060008152602001600081526020016060815260200160008152602001600073ffffffffffffffffffffffffffffffffffffffff168152602001600015158152602001600081525090565b5b80821115611b5e5760008181611b559190611be8565b50600101611b3f565b5090565b828054611b6e9061286d565b90600052602060002090601f016020900481019282611b905760008555611bd7565b82601f10611ba957805160ff1916838001178555611bd7565b82800160010185558215611bd7579182015b82811115611bd6578251825591602001919060010190611bbb565b5b509050611be49190611c28565b5090565b508054611bf49061286d565b6000825580601f10611c065750611c25565b601f016020900490600052602060002090810190611c249190611c28565b5b50565b5b80821115611c41576000816000905550600101611c29565b5090565b6000611c58611c538461267a565b612655565b9050808382526020820190508260005b85811015611c985781358501611c7e8882611d34565b845260208401935060208301925050600181019050611c68565b5050509392505050565b6000611cb5611cb0846126a6565b612655565b905082815260208101848484011115611ccd57600080fd5b611cd884828561282b565b509392505050565b600081359050611cef81612a5e565b92915050565b600081519050611d0481612a5e565b92915050565b600082601f830112611d1b57600080fd5b8135611d2b848260208601611c45565b91505092915050565b600082601f830112611d4557600080fd5b8135611d55848260208601611ca2565b91505092915050565b600081359050611d6d81612a75565b92915050565b600081519050611d8281612a75565b92915050565b600060208284031215611d9a57600080fd5b6000611da884828501611ce0565b91505092915050565b600060208284031215611dc357600080fd5b6000611dd184828501611cf5565b91505092915050565b60008060008060808587031215611df057600080fd5b6000611dfe87828801611ce0565b9450506020611e0f87828801611d5e565b9350506040611e2087828801611d5e565b925050606085013567ffffffffffffffff811115611e3d57600080fd5b611e4987828801611d0a565b91505092959194509250565b600080600080600060a08688031215611e6d57600080fd5b6000611e7b88828901611ce0565b9550506020611e8c88828901611d5e565b9450506040611e9d88828901611d5e565b9350506060611eae88828901611d5e565b925050608086013567ffffffffffffffff811115611ecb57600080fd5b611ed788828901611d0a565b9150509295509295909350565b600060208284031215611ef657600080fd5b6000611f0484828501611d5e565b91505092915050565b600060208284031215611f1f57600080fd5b6000611f2d84828501611d73565b91505092915050565b6000611f42838361210d565b905092915050565b6000611f5683836121d2565b905092915050565b6000611f6a838361230a565b905092915050565b611f7b816127e3565b82525050565b611f8a816127e3565b82525050565b6000611f9b82612707565b611fa5818561275a565b935083602082028501611fb7856126d7565b8060005b85811015611ff35784840389528151611fd48582611f36565b9450611fdf83612733565b925060208a01995050600181019050611fbb565b50829750879550505050505092915050565b600061201082612712565b61201a818561276b565b93508360208202850161202c856126e7565b8060005b8581101561206857848403895281516120498582611f4a565b945061205483612740565b925060208a01995050600181019050612030565b50829750879550505050505092915050565b60006120858261271d565b61208f818561277c565b9350836020820285016120a1856126f7565b8060005b858110156120dd57848403895281516120be8582611f5e565b94506120c98361274d565b925060208a019950506001810190506120a5565b50829750879550505050505092915050565b6120f8816127f5565b82525050565b612107816127f5565b82525050565b600061211882612728565b612122818561278d565b935061213281856020860161283a565b61213b8161295d565b840191505092915050565b600061215360268361279e565b915061215e8261296e565b604082019050919050565b600061217660258361279e565b9150612181826129bd565b604082019050919050565b600061219960208361279e565b91506121a482612a0c565b602082019050919050565b60006121bc601b8361279e565b91506121c782612a35565b602082019050919050565b600060e0830160008301516121ea600086018261241c565b5060208301516121fd602086018261241c565b50604083015184820360408601526122158282611f90565b915050606083015161222a606086018261241c565b50608083015161223d6080860182611f72565b5060a083015161225060a08601826120ef565b5060c083015161226360c086018261241c565b508091505092915050565b600060e083016000830151612286600086018261241c565b506020830151612299602086018261241c565b50604083015184820360408601526122b18282611f90565b91505060608301516122c6606086018261241c565b5060808301516122d96080860182611f72565b5060a08301516122ec60a08601826120ef565b5060c08301516122ff60c086018261241c565b508091505092915050565b600060c083016000830151612322600086018261241c565b506020830151612335602086018261241c565b506040830151848203604086015261234d8282611f90565b9150506060830151612362606086018261241c565b5060808301516123756080860182611f72565b5060a083015161238860a08601826120ef565b508091505092915050565b600060c0830160008301516123ab600086018261241c565b5060208301516123be602086018261241c565b50604083015184820360408601526123d68282611f90565b91505060608301516123eb606086018261241c565b5060808301516123fe6080860182611f72565b5060a083015161241160a08601826120ef565b508091505092915050565b61242581612821565b82525050565b61243481612821565b82525050565b600060208201905061244f6000830184611f81565b92915050565b6000602082019050818103600083015261246f8184612005565b905092915050565b60006020820190508181036000830152612491818461207a565b905092915050565b600060208201905081810360008301526124b281612146565b9050919050565b600060208201905081810360008301526124d281612169565b9050919050565b600060208201905081810360008301526124f28161218c565b9050919050565b60006020820190508181036000830152612512816121af565b9050919050565b60006020820190508181036000830152612533818461226e565b905092915050565b600060208201905081810360008301526125558184612393565b905092915050565b6000602082019050612572600083018461242b565b92915050565b600060408201905061258d600083018561242b565b61259a6020830184611f81565b9392505050565b600060a0820190506125b6600083018861242b565b6125c3602083018761242b565b6125d0604083018661242b565b6125dd6060830185611f81565b6125ea60808301846120fe565b9695505050505050565b600060c082019050612609600083018961242b565b612616602083018861242b565b612623604083018761242b565b6126306060830186611f81565b61263d60808301856120fe565b61264a60a083018461242b565b979650505050505050565b600061265f612670565b905061266b828261289f565b919050565b6000604051905090565b600067ffffffffffffffff8211156126955761269461292e565b5b602082029050602081019050919050565b600067ffffffffffffffff8211156126c1576126c061292e565b5b6126ca8261295d565b9050602081019050919050565b6000819050602082019050919050565b6000819050602082019050919050565b6000819050602082019050919050565b600081519050919050565b600081519050919050565b600081519050919050565b600081519050919050565b6000602082019050919050565b6000602082019050919050565b6000602082019050919050565b600082825260208201905092915050565b600082825260208201905092915050565b600082825260208201905092915050565b600082825260208201905092915050565b600082825260208201905092915050565b60006127ba82612821565b91506127c583612821565b9250828210156127d8576127d76128d0565b5b828203905092915050565b60006127ee82612801565b9050919050565b60008115159050919050565b600073ffffffffffffffffffffffffffffffffffffffff82169050919050565b6000819050919050565b82818337600083830152505050565b60005b8381101561285857808201518184015260208101905061283d565b83811115612867576000848401525b50505050565b6000600282049050600182168061288557607f821691505b60208210811415612899576128986128ff565b5b50919050565b6128a88261295d565b810181811067ffffffffffffffff821117156128c7576128c661292e565b5b80604052505050565b7f4e487b7100000000000000000000000000000000000000000000000000000000600052601160045260246000fd5b7f4e487b7100000000000000000000000000000000000000000000000000000000600052602260045260246000fd5b7f4e487b7100000000000000000000000000000000000000000000000000000000600052604160045260246000fd5b6000601f19601f8301169050919050565b7f4f776e61626c653a206e6577206f776e657220697320746865207a65726f206160008201527f6464726573730000000000000000000000000000000000000000000000000000602082015250565b7f4f6e6c7920746865204f776e65722063616e2072656d6f76652074686520506160008201527f7263656c61000000000000000000000000000000000000000000000000000000602082015250565b7f4f776e61626c653a2063616c6c6572206973206e6f7420746865206f776e6572600082015250565b7f56616c6f72657320616c747572617320696e636f72726563746f730000000000600082015250565b612a67816127e3565b8114612a7257600080fd5b50565b612a7e81612821565b8114612a8957600080fd5b5056fea2646970667358221220f4c8e1684bd98ef79eb9cd14ee0d53d291567a301a4d1603b422e20657622f4064736f6c6343000801003360806040523480156200001157600080fd5b506040516200303e3803806200303e833981810160405281019062000037919062000285565b808281600090805190602001906200005192919062000163565b5080600190805190602001906200006a92919062000163565b5050506200008d620000816200009560201b60201c565b6200009d60201b60201c565b505062000468565b600033905090565b6000600660009054906101000a900473ffffffffffffffffffffffffffffffffffffffff16905081600660006101000a81548173ffffffffffffffffffffffffffffffffffffffff021916908373ffffffffffffffffffffffffffffffffffffffff1602179055508173ffffffffffffffffffffffffffffffffffffffff168173ffffffffffffffffffffffffffffffffffffffff167f8be0079c531659141344cd1fd0a4f28419497f9722a3daafe3b4186f6b6457e060405160405180910390a35050565b82805462000171906200038d565b90600052602060002090601f016020900481019282620001955760008555620001e1565b82601f10620001b057805160ff1916838001178555620001e1565b82800160010185558215620001e1579182015b82811115620001e0578251825591602001919060010190620001c3565b5b509050620001f09190620001f4565b5090565b5b808211156200020f576000816000905550600101620001f5565b5090565b60006200022a620002248462000321565b620002f8565b9050828152602081018484840111156200024357600080fd5b6200025084828562000357565b509392505050565b600082601f8301126200026a57600080fd5b81516200027c84826020860162000213565b91505092915050565b600080604083850312156200029957600080fd5b600083015167ffffffffffffffff811115620002b457600080fd5b620002c28582860162000258565b925050602083015167ffffffffffffffff811115620002e057600080fd5b620002ee8582860162000258565b9150509250929050565b60006200030462000317565b9050620003128282620003c3565b919050565b6000604051905090565b600067ffffffffffffffff8211156200033f576200033e62000428565b5b6200034a8262000457565b9050602081019050919050565b60005b83811015620003775780820151818401526020810190506200035a565b8381111562000387576000848401525b50505050565b60006002820490506001821680620003a657607f821691505b60208210811415620003bd57620003bc620003f9565b5b50919050565b620003ce8262000457565b810181811067ffffffffffffffff82111715620003f057620003ef62000428565b5b80604052505050565b7f4e487b7100000000000000000000000000000000000000000000000000000000600052602260045260246000fd5b7f4e487b7100000000000000000000000000000000000000000000000000000000600052604160045260246000fd5b6000601f19601f8301169050919050565b612bc680620004786000396000f3fe608060405234801561001057600080fd5b506004361061012c5760003560e01c8063715018a6116100ad578063b812f28411610071578063b812f28414610343578063b88d4fde1461035f578063c87b56dd1461037b578063e985e9c5146103ab578063f2fde38b146103db5761012c565b8063715018a6146102b15780638da5cb5b146102bb5780639169893f146102d957806395d89b4114610309578063a22cb465146103275761012c565b806323b872dd116100f457806323b872dd146101fb578063399fe1531461021757806342842e0e146102355780636352211e1461025157806370a08231146102815761012c565b806301ffc9a71461013157806306fdde0314610161578063081812fc1461017f578063095ea7b3146101af57806314a044d4146101cb575b600080fd5b61014b60048036038101906101469190611dd8565b6103f7565b60405161015891906121d4565b60405180910390f35b6101696104d9565b60405161017691906121ef565b60405180910390f35b61019960048036038101906101949190611e2a565b61056b565b6040516101a6919061216d565b60405180910390f35b6101c960048036038101906101c49190611d9c565b6105b1565b005b6101e560048036038101906101e09190611c31565b6106c9565b6040516101f291906123d1565b60405180910390f35b61021560048036038101906102109190611c96565b610701565b005b61021f610761565b60405161022c91906123d1565b60405180910390f35b61024f600480360381019061024a9190611c96565b610772565b005b61026b60048036038101906102669190611e2a565b610792565b604051610278919061216d565b60405180910390f35b61029b60048036038101906102969190611c31565b610844565b6040516102a891906123d1565b60405180910390f35b6102b96108fc565b005b6102c3610910565b6040516102d0919061216d565b60405180910390f35b6102f360048036038101906102ee9190611e2a565b61093a565b604051610300919061216d565b60405180910390f35b61031161094c565b60405161031e91906121ef565b60405180910390f35b610341600480360381019061033c9190611d60565b6109de565b005b61035d60048036038101906103589190611e53565b6109f4565b005b61037960048036038101906103749190611ce5565b610a77565b005b61039560048036038101906103909190611e2a565b610ad9565b6040516103a291906121ef565b60405180910390f35b6103c560048036038101906103c09190611c5a565b610b41565b6040516103d291906121d4565b60405180910390f35b6103f560048036038101906103f09190611c31565b610bd5565b005b60007f80ac58cd000000000000000000000000000000000000000000000000000000007bffffffffffffffffffffffffffffffffffffffffffffffffffffffff1916827bffffffffffffffffffffffffffffffffffffffffffffffffffffffff191614806104c257507f5b5e139f000000000000000000000000000000000000000000000000000000007bffffffffffffffffffffffffffffffffffffffffffffffffffffffff1916827bffffffffffffffffffffffffffffffffffffffffffffffffffffffff1916145b806104d257506104d182610c59565b5b9050919050565b6060600080546104e8906125f6565b80601f0160208091040260200160405190810160405280929190818152602001828054610514906125f6565b80156105615780601f1061053657610100808354040283529160200191610561565b820191906000526020600020905b81548152906001019060200180831161054457829003601f168201915b5050505050905090565b600061057682610cc3565b6004600083815260200190815260200160002060009054906101000a900473ffffffffffffffffffffffffffffffffffffffff169050919050565b60006105bc82610792565b90508073ffffffffffffffffffffffffffffffffffffffff168373ffffffffffffffffffffffffffffffffffffffff16141561062d576040517f08c379a000000000000000000000000000000000000000000000000000000000815260040161062490612371565b60405180910390fd5b8073ffffffffffffffffffffffffffffffffffffffff1661064c610d0e565b73ffffffffffffffffffffffffffffffffffffffff16148061067b575061067a81610675610d0e565b610b41565b5b6106ba576040517f08c379a00000000000000000000000000000000000000000000000000000000081526004016106b1906122f1565b60405180910390fd5b6106c48383610d16565b505050565b60006106d3610dcf565b6106dd6007610e4d565b6106f0826106eb6007610e63565b610e71565b6106fa6007610e63565b9050919050565b61071261070c610d0e565b82610e8f565b610751576040517f08c379a0000000000000000000000000000000000000000000000000000000008152600401610748906123b1565b60405180910390fd5b61075c838383610f24565b505050565b600061076d6007610e63565b905090565b61078d83838360405180602001604052806000815250610a77565b505050565b6000806002600084815260200190815260200160002060009054906101000a900473ffffffffffffffffffffffffffffffffffffffff169050600073ffffffffffffffffffffffffffffffffffffffff168173ffffffffffffffffffffffffffffffffffffffff16141561083b576040517f08c379a000000000000000000000000000000000000000000000000000000000815260040161083290612351565b60405180910390fd5b80915050919050565b60008073ffffffffffffffffffffffffffffffffffffffff168273ffffffffffffffffffffffffffffffffffffffff1614156108b5576040517f08c379a00000000000000000000000000000000000000000000000000000000081526004016108ac906122d1565b60405180910390fd5b600360008373ffffffffffffffffffffffffffffffffffffffff1673ffffffffffffffffffffffffffffffffffffffff168152602001908152602001600020549050919050565b610904610dcf565b61090e600061118b565b565b6000600660009054906101000a900473ffffffffffffffffffffffffffffffffffffffff16905090565b600061094582610792565b9050919050565b60606001805461095b906125f6565b80601f0160208091040260200160405190810160405280929190818152602001828054610987906125f6565b80156109d45780601f106109a9576101008083540402835291602001916109d4565b820191906000526020600020905b8154815290600101906020018083116109b757829003601f168201915b5050505050905090565b6109f06109e9610d0e565b8383611251565b5050565b8073ffffffffffffffffffffffffffffffffffffffff16610a1483610792565b73ffffffffffffffffffffffffffffffffffffffff1614610a6a576040517f08c379a0000000000000000000000000000000000000000000000000000000008152600401610a6190612391565b60405180910390fd5b610a73826113be565b5050565b610a88610a82610d0e565b83610e8f565b610ac7576040517f08c379a0000000000000000000000000000000000000000000000000000000008152600401610abe906123b1565b60405180910390fd5b610ad3848484846114db565b50505050565b6060610ae482610cc3565b6000610aee611537565b90506000815111610b0e5760405180602001604052806000815250610b39565b80610b188461154e565b604051602001610b29929190612149565b6040516020818303038152906040525b915050919050565b6000600560008473ffffffffffffffffffffffffffffffffffffffff1673ffffffffffffffffffffffffffffffffffffffff16815260200190815260200160002060008373ffffffffffffffffffffffffffffffffffffffff1673ffffffffffffffffffffffffffffffffffffffff16815260200190815260200160002060009054906101000a900460ff16905092915050565b610bdd610dcf565b600073ffffffffffffffffffffffffffffffffffffffff168173ffffffffffffffffffffffffffffffffffffffff161415610c4d576040517f08c379a0000000000000000000000000000000000000000000000000000000008152600401610c4490612231565b60405180910390fd5b610c568161118b565b50565b60007f01ffc9a7000000000000000000000000000000000000000000000000000000007bffffffffffffffffffffffffffffffffffffffffffffffffffffffff1916827bffffffffffffffffffffffffffffffffffffffffffffffffffffffff1916149050919050565b610ccc816116fb565b610d0b576040517f08c379a0000000000000000000000000000000000000000000000000000000008152600401610d0290612351565b60405180910390fd5b50565b600033905090565b816004600083815260200190815260200160002060006101000a81548173ffffffffffffffffffffffffffffffffffffffff021916908373ffffffffffffffffffffffffffffffffffffffff160217905550808273ffffffffffffffffffffffffffffffffffffffff16610d8983610792565b73ffffffffffffffffffffffffffffffffffffffff167f8c5be1e5ebec7d5bd14f71427d1e84f3dd0314c0f7b2291e5b200ac8c7c3b92560405160405180910390a45050565b610dd7610d0e565b73ffffffffffffffffffffffffffffffffffffffff16610df5610910565b73ffffffffffffffffffffffffffffffffffffffff1614610e4b576040517f08c379a0000000000000000000000000000000000000000000000000000000008152600401610e4290612331565b60405180910390fd5b565b6001816000016000828254019250508190555050565b600081600001549050919050565b610e8b828260405180602001604052806000815250611767565b5050565b600080610e9b83610792565b90508073ffffffffffffffffffffffffffffffffffffffff168473ffffffffffffffffffffffffffffffffffffffff161480610edd5750610edc8185610b41565b5b80610f1b57508373ffffffffffffffffffffffffffffffffffffffff16610f038461056b565b73ffffffffffffffffffffffffffffffffffffffff16145b91505092915050565b8273ffffffffffffffffffffffffffffffffffffffff16610f4482610792565b73ffffffffffffffffffffffffffffffffffffffff1614610f9a576040517f08c379a0000000000000000000000000000000000000000000000000000000008152600401610f9190612251565b60405180910390fd5b600073ffffffffffffffffffffffffffffffffffffffff168273ffffffffffffffffffffffffffffffffffffffff16141561100a576040517f08c379a000000000000000000000000000000000000000000000000000000000815260040161100190612291565b60405180910390fd5b6110158383836117c2565b611020600082610d16565b6001600360008573ffffffffffffffffffffffffffffffffffffffff1673ffffffffffffffffffffffffffffffffffffffff1681526020019081526020016000206000828254611070919061250c565b925050819055506001600360008473ffffffffffffffffffffffffffffffffffffffff1673ffffffffffffffffffffffffffffffffffffffff16815260200190815260200160002060008282546110c79190612485565b92505081905550816002600083815260200190815260200160002060006101000a81548173ffffffffffffffffffffffffffffffffffffffff021916908373ffffffffffffffffffffffffffffffffffffffff160217905550808273ffffffffffffffffffffffffffffffffffffffff168473ffffffffffffffffffffffffffffffffffffffff167fddf252ad1be2c89b69c2b068fc378daa952ba7f163c4a11628f55a4df523b3ef60405160405180910390a46111868383836117c7565b505050565b6000600660009054906101000a900473ffffffffffffffffffffffffffffffffffffffff16905081600660006101000a81548173ffffffffffffffffffffffffffffffffffffffff021916908373ffffffffffffffffffffffffffffffffffffffff1602179055508173ffffffffffffffffffffffffffffffffffffffff168173ffffffffffffffffffffffffffffffffffffffff167f8be0079c531659141344cd1fd0a4f28419497f9722a3daafe3b4186f6b6457e060405160405180910390a35050565b8173ffffffffffffffffffffffffffffffffffffffff168373ffffffffffffffffffffffffffffffffffffffff1614156112c0576040517f08c379a00000000000000000000000000000000000000000000000000000000081526004016112b7906122b1565b60405180910390fd5b80600560008573ffffffffffffffffffffffffffffffffffffffff1673ffffffffffffffffffffffffffffffffffffffff16815260200190815260200160002060008473ffffffffffffffffffffffffffffffffffffffff1673ffffffffffffffffffffffffffffffffffffffff16815260200190815260200160002060006101000a81548160ff0219169083151502179055508173ffffffffffffffffffffffffffffffffffffffff168373ffffffffffffffffffffffffffffffffffffffff167f17307eab39ab6107e8899845ad3d59bd9653f200f220920489ca2b5937696c31836040516113b191906121d4565b60405180910390a3505050565b60006113c982610792565b90506113d7816000846117c2565b6113e2600083610d16565b6001600360008373ffffffffffffffffffffffffffffffffffffffff1673ffffffffffffffffffffffffffffffffffffffff1681526020019081526020016000206000828254611432919061250c565b925050819055506002600083815260200190815260200160002060006101000a81549073ffffffffffffffffffffffffffffffffffffffff021916905581600073ffffffffffffffffffffffffffffffffffffffff168273ffffffffffffffffffffffffffffffffffffffff167fddf252ad1be2c89b69c2b068fc378daa952ba7f163c4a11628f55a4df523b3ef60405160405180910390a46114d7816000846117c7565b5050565b6114e6848484610f24565b6114f2848484846117cc565b611531576040517f08c379a000000000000000000000000000000000000000000000000000000000815260040161152890612211565b60405180910390fd5b50505050565b606060405180602001604052806000815250905090565b60606000821415611596576040518060400160405280600181526020017f300000000000000000000000000000000000000000000000000000000000000081525090506116f6565b600082905060005b600082146115c85780806115b190612659565b915050600a826115c191906124db565b915061159e565b60008167ffffffffffffffff81111561160a577f4e487b7100000000000000000000000000000000000000000000000000000000600052604160045260246000fd5b6040519080825280601f01601f19166020018201604052801561163c5781602001600182028036833780820191505090505b5090505b600085146116ef57600182611655919061250c565b9150600a8561166491906126a2565b60306116709190612485565b60f81b8183815181106116ac577f4e487b7100000000000000000000000000000000000000000000000000000000600052603260045260246000fd5b60200101907effffffffffffffffffffffffffffffffffffffffffffffffffffffffffffff1916908160001a905350600a856116e891906124db565b9450611640565b8093505050505b919050565b60008073ffffffffffffffffffffffffffffffffffffffff166002600084815260200190815260200160002060009054906101000a900473ffffffffffffffffffffffffffffffffffffffff1673ffffffffffffffffffffffffffffffffffffffff1614159050919050565b6117718383611963565b61177e60008484846117cc565b6117bd576040517f08c379a00000000000000000000000000000000000000000000000000000000081526004016117b490612211565b60405180910390fd5b505050565b505050565b505050565b60006117ed8473ffffffffffffffffffffffffffffffffffffffff16611b3d565b15611956578373ffffffffffffffffffffffffffffffffffffffff1663150b7a02611816610d0e565b8786866040518563ffffffff1660e01b81526004016118389493929190612188565b602060405180830381600087803b15801561185257600080fd5b505af192505050801561188357506040513d601f19601f820116820180604052508101906118809190611e01565b60015b611906573d80600081146118b3576040519150601f19603f3d011682016040523d82523d6000602084013e6118b8565b606091505b506000815114156118fe576040517f08c379a00000000000000000000000000000000000000000000000000000000081526004016118f590612211565b60405180910390fd5b805181602001fd5b63150b7a0260e01b7bffffffffffffffffffffffffffffffffffffffffffffffffffffffff1916817bffffffffffffffffffffffffffffffffffffffffffffffffffffffff19161491505061195b565b600190505b949350505050565b600073ffffffffffffffffffffffffffffffffffffffff168273ffffffffffffffffffffffffffffffffffffffff1614156119d3576040517f08c379a00000000000000000000000000000000000000000000000000000000081526004016119ca90612311565b60405180910390fd5b6119dc816116fb565b15611a1c576040517f08c379a0000000000000000000000000000000000000000000000000000000008152600401611a1390612271565b60405180910390fd5b611a28600083836117c2565b6001600360008473ffffffffffffffffffffffffffffffffffffffff1673ffffffffffffffffffffffffffffffffffffffff1681526020019081526020016000206000828254611a789190612485565b92505081905550816002600083815260200190815260200160002060006101000a81548173ffffffffffffffffffffffffffffffffffffffff021916908373ffffffffffffffffffffffffffffffffffffffff160217905550808273ffffffffffffffffffffffffffffffffffffffff16600073ffffffffffffffffffffffffffffffffffffffff167fddf252ad1be2c89b69c2b068fc378daa952ba7f163c4a11628f55a4df523b3ef60405160405180910390a4611b39600083836117c7565b5050565b6000808273ffffffffffffffffffffffffffffffffffffffff163b119050919050565b6000611b73611b6e84612411565b6123ec565b905082815260208101848484011115611b8b57600080fd5b611b968482856125b4565b509392505050565b600081359050611bad81612b34565b92915050565b600081359050611bc281612b4b565b92915050565b600081359050611bd781612b62565b92915050565b600081519050611bec81612b62565b92915050565b600082601f830112611c0357600080fd5b8135611c13848260208601611b60565b91505092915050565b600081359050611c2b81612b79565b92915050565b600060208284031215611c4357600080fd5b6000611c5184828501611b9e565b91505092915050565b60008060408385031215611c6d57600080fd5b6000611c7b85828601611b9e565b9250506020611c8c85828601611b9e565b9150509250929050565b600080600060608486031215611cab57600080fd5b6000611cb986828701611b9e565b9350506020611cca86828701611b9e565b9250506040611cdb86828701611c1c565b9150509250925092565b60008060008060808587031215611cfb57600080fd5b6000611d0987828801611b9e565b9450506020611d1a87828801611b9e565b9350506040611d2b87828801611c1c565b925050606085013567ffffffffffffffff811115611d4857600080fd5b611d5487828801611bf2565b91505092959194509250565b60008060408385031215611d7357600080fd5b6000611d8185828601611b9e565b9250506020611d9285828601611bb3565b9150509250929050565b60008060408385031215611daf57600080fd5b6000611dbd85828601611b9e565b9250506020611dce85828601611c1c565b9150509250929050565b600060208284031215611dea57600080fd5b6000611df884828501611bc8565b91505092915050565b600060208284031215611e1357600080fd5b6000611e2184828501611bdd565b91505092915050565b600060208284031215611e3c57600080fd5b6000611e4a84828501611c1c565b91505092915050565b60008060408385031215611e6657600080fd5b6000611e7485828601611c1c565b9250506020611e8585828601611b9e565b9150509250929050565b611e9881612540565b82525050565b611ea781612552565b82525050565b6000611eb882612442565b611ec28185612458565b9350611ed28185602086016125c3565b611edb8161278f565b840191505092915050565b6000611ef18261244d565b611efb8185612469565b9350611f0b8185602086016125c3565b611f148161278f565b840191505092915050565b6000611f2a8261244d565b611f34818561247a565b9350611f448185602086016125c3565b80840191505092915050565b6000611f5d603283612469565b9150611f68826127a0565b604082019050919050565b6000611f80602683612469565b9150611f8b826127ef565b604082019050919050565b6000611fa3602583612469565b9150611fae8261283e565b604082019050919050565b6000611fc6601c83612469565b9150611fd18261288d565b602082019050919050565b6000611fe9602483612469565b9150611ff4826128b6565b604082019050919050565b600061200c601983612469565b915061201782612905565b602082019050919050565b600061202f602983612469565b915061203a8261292e565b604082019050919050565b6000612052603e83612469565b915061205d8261297d565b604082019050919050565b6000612075602083612469565b9150612080826129cc565b602082019050919050565b6000612098602083612469565b91506120a3826129f5565b602082019050919050565b60006120bb601883612469565b91506120c682612a1e565b602082019050919050565b60006120de602183612469565b91506120e982612a47565b604082019050919050565b6000612101602283612469565b915061210c82612a96565b604082019050919050565b6000612124602e83612469565b915061212f82612ae5565b604082019050919050565b612143816125aa565b82525050565b60006121558285611f1f565b91506121618284611f1f565b91508190509392505050565b60006020820190506121826000830184611e8f565b92915050565b600060808201905061219d6000830187611e8f565b6121aa6020830186611e8f565b6121b7604083018561213a565b81810360608301526121c98184611ead565b905095945050505050565b60006020820190506121e96000830184611e9e565b92915050565b600060208201905081810360008301526122098184611ee6565b905092915050565b6000602082019050818103600083015261222a81611f50565b9050919050565b6000602082019050818103600083015261224a81611f73565b9050919050565b6000602082019050818103600083015261226a81611f96565b9050919050565b6000602082019050818103600083015261228a81611fb9565b9050919050565b600060208201905081810360008301526122aa81611fdc565b9050919050565b600060208201905081810360008301526122ca81611fff565b9050919050565b600060208201905081810360008301526122ea81612022565b9050919050565b6000602082019050818103600083015261230a81612045565b9050919050565b6000602082019050818103600083015261232a81612068565b9050919050565b6000602082019050818103600083015261234a8161208b565b9050919050565b6000602082019050818103600083015261236a816120ae565b9050919050565b6000602082019050818103600083015261238a816120d1565b9050919050565b600060208201905081810360008301526123aa816120f4565b9050919050565b600060208201905081810360008301526123ca81612117565b9050919050565b60006020820190506123e6600083018461213a565b92915050565b60006123f6612407565b90506124028282612628565b919050565b6000604051905090565b600067ffffffffffffffff82111561242c5761242b612760565b5b6124358261278f565b9050602081019050919050565b600081519050919050565b600081519050919050565b600082825260208201905092915050565b600082825260208201905092915050565b600081905092915050565b6000612490826125aa565b915061249b836125aa565b9250827fffffffffffffffffffffffffffffffffffffffffffffffffffffffffffffffff038211156124d0576124cf6126d3565b5b828201905092915050565b60006124e6826125aa565b91506124f1836125aa565b92508261250157612500612702565b5b828204905092915050565b6000612517826125aa565b9150612522836125aa565b925082821015612535576125346126d3565b5b828203905092915050565b600061254b8261258a565b9050919050565b60008115159050919050565b60007fffffffff0000000000000000000000000000000000000000000000000000000082169050919050565b600073ffffffffffffffffffffffffffffffffffffffff82169050919050565b6000819050919050565b82818337600083830152505050565b60005b838110156125e15780820151818401526020810190506125c6565b838111156125f0576000848401525b50505050565b6000600282049050600182168061260e57607f821691505b6020821081141561262257612621612731565b5b50919050565b6126318261278f565b810181811067ffffffffffffffff821117156126505761264f612760565b5b80604052505050565b6000612664826125aa565b91507fffffffffffffffffffffffffffffffffffffffffffffffffffffffffffffffff821415612697576126966126d3565b5b600182019050919050565b60006126ad826125aa565b91506126b8836125aa565b9250826126c8576126c7612702565b5b828206905092915050565b7f4e487b7100000000000000000000000000000000000000000000000000000000600052601160045260246000fd5b7f4e487b7100000000000000000000000000000000000000000000000000000000600052601260045260246000fd5b7f4e487b7100000000000000000000000000000000000000000000000000000000600052602260045260246000fd5b7f4e487b7100000000000000000000000000000000000000000000000000000000600052604160045260246000fd5b6000601f19601f8301169050919050565b7f4552433732313a207472616e7366657220746f206e6f6e20455243373231526560008201527f63656976657220696d706c656d656e7465720000000000000000000000000000602082015250565b7f4f776e61626c653a206e6577206f776e657220697320746865207a65726f206160008201527f6464726573730000000000000000000000000000000000000000000000000000602082015250565b7f4552433732313a207472616e736665722066726f6d20696e636f72726563742060008201527f6f776e6572000000000000000000000000000000000000000000000000000000602082015250565b7f4552433732313a20746f6b656e20616c7265616479206d696e74656400000000600082015250565b7f4552433732313a207472616e7366657220746f20746865207a65726f2061646460008201527f7265737300000000000000000000000000000000000000000000000000000000602082015250565b7f4552433732313a20617070726f766520746f2063616c6c657200000000000000600082015250565b7f4552433732313a2061646472657373207a65726f206973206e6f74206120766160008201527f6c6964206f776e65720000000000000000000000000000000000000000000000602082015250565b7f4552433732313a20617070726f76652063616c6c6572206973206e6f7420746f60008201527f6b656e206f776e6572206e6f7220617070726f76656420666f7220616c6c0000602082015250565b7f4552433732313a206d696e7420746f20746865207a65726f2061646472657373600082015250565b7f4f776e61626c653a2063616c6c6572206973206e6f7420746865206f776e6572600082015250565b7f4552433732313a20696e76616c696420746f6b656e2049440000000000000000600082015250565b7f4552433732313a20617070726f76616c20746f2063757272656e74206f776e6560008201527f7200000000000000000000000000000000000000000000000000000000000000602082015250565b7f4f6e6c7920746865204f776e65722063616e2072656d6f76652074686520447260008201527f6f6e000000000000000000000000000000000000000000000000000000000000602082015250565b7f4552433732313a2063616c6c6572206973206e6f7420746f6b656e206f776e6560008201527f72206e6f7220617070726f766564000000000000000000000000000000000000602082015250565b612b3d81612540565b8114612b4857600080fd5b50565b612b5481612552565b8114612b5f57600080fd5b50565b612b6b8161255e565b8114612b7657600080fd5b50565b612b82816125aa565b8114612b8d57600080fd5b5056fea2646970667358221220f7aee0ea5fb3520fc2ee8bc60dc9e0e72733cbfde1597a31c68046a29a217bd164736f6c6343000801003360806040523480156200001157600080fd5b506040516200303e3803806200303e833981810160405281019062000037919062000285565b808281600090805190602001906200005192919062000163565b5080600190805190602001906200006a92919062000163565b5050506200008d620000816200009560201b60201c565b6200009d60201b60201c565b505062000468565b600033905090565b6000600660009054906101000a900473ffffffffffffffffffffffffffffffffffffffff16905081600660006101000a81548173ffffffffffffffffffffffffffffffffffffffff021916908373ffffffffffffffffffffffffffffffffffffffff1602179055508173ffffffffffffffffffffffffffffffffffffffff168173ffffffffffffffffffffffffffffffffffffffff167f8be0079c531659141344cd1fd0a4f28419497f9722a3daafe3b4186f6b6457e060405160405180910390a35050565b82805462000171906200038d565b90600052602060002090601f016020900481019282620001955760008555620001e1565b82601f10620001b057805160ff1916838001178555620001e1565b82800160010185558215620001e1579182015b82811115620001e0578251825591602001919060010190620001c3565b5b509050620001f09190620001f4565b5090565b5b808211156200020f576000816000905550600101620001f5565b5090565b60006200022a620002248462000321565b620002f8565b9050828152602081018484840111156200024357600080fd5b6200025084828562000357565b509392505050565b600082601f8301126200026a57600080fd5b81516200027c84826020860162000213565b91505092915050565b600080604083850312156200029957600080fd5b600083015167ffffffffffffffff811115620002b457600080fd5b620002c28582860162000258565b925050602083015167ffffffffffffffff811115620002e057600080fd5b620002ee8582860162000258565b9150509250929050565b60006200030462000317565b9050620003128282620003c3565b919050565b6000604051905090565b600067ffffffffffffffff8211156200033f576200033e62000428565b5b6200034a8262000457565b9050602081019050919050565b60005b83811015620003775780820151818401526020810190506200035a565b8381111562000387576000848401525b50505050565b60006002820490506001821680620003a657607f821691505b60208210811415620003bd57620003bc620003f9565b5b50919050565b620003ce8262000457565b810181811067ffffffffffffffff82111715620003f057620003ef62000428565b5b80604052505050565b7f4e487b7100000000000000000000000000000000000000000000000000000000600052602260045260246000fd5b7f4e487b7100000000000000000000000000000000000000000000000000000000600052604160045260246000fd5b6000601f19601f8301169050919050565b612bc680620004786000396000f3fe608060405234801561001057600080fd5b506004361061012c5760003560e01c806370a08231116100ad578063aab797a811610071578063aab797a81461032f578063b88d4fde1461035f578063c87b56dd1461037b578063e985e9c5146103ab578063f2fde38b146103db5761012c565b806370a082311461029d578063715018a6146102cd5780638da5cb5b146102d757806395d89b41146102f5578063a22cb465146103135761012c565b806320b4e4ca116100f457806320b4e4ca146101fb57806323b872dd14610217578063399fe1531461023357806342842e0e146102515780636352211e1461026d5761012c565b806301ffc9a71461013157806306fdde0314610161578063081812fc1461017f578063095ea7b3146101af5780631a5dd914146101cb575b600080fd5b61014b60048036038101906101469190611dd8565b6103f7565b60405161015891906121d4565b60405180910390f35b6101696104d9565b60405161017691906121ef565b60405180910390f35b61019960048036038101906101949190611e2a565b61056b565b6040516101a6919061216d565b60405180910390f35b6101c960048036038101906101c49190611d9c565b6105b1565b005b6101e560048036038101906101e09190611e2a565b6106c9565b6040516101f2919061216d565b60405180910390f35b61021560048036038101906102109190611e53565b6106db565b005b610231600480360381019061022c9190611c96565b61075e565b005b61023b6107be565b60405161024891906123d1565b60405180910390f35b61026b60048036038101906102669190611c96565b6107cf565b005b61028760048036038101906102829190611e2a565b6107ef565b604051610294919061216d565b60405180910390f35b6102b760048036038101906102b29190611c31565b6108a1565b6040516102c491906123d1565b60405180910390f35b6102d5610959565b005b6102df61096d565b6040516102ec919061216d565b60405180910390f35b6102fd610997565b60405161030a91906121ef565b60405180910390f35b61032d60048036038101906103289190611d60565b610a29565b005b61034960048036038101906103449190611c31565b610a3f565b60405161035691906123d1565b60405180910390f35b61037960048036038101906103749190611ce5565b610a77565b005b61039560048036038101906103909190611e2a565b610ad9565b6040516103a291906121ef565b60405180910390f35b6103c560048036038101906103c09190611c5a565b610b41565b6040516103d291906121d4565b60405180910390f35b6103f560048036038101906103f09190611c31565b610bd5565b005b60007f80ac58cd000000000000000000000000000000000000000000000000000000007bffffffffffffffffffffffffffffffffffffffffffffffffffffffff1916827bffffffffffffffffffffffffffffffffffffffffffffffffffffffff191614806104c257507f5b5e139f000000000000000000000000000000000000000000000000000000007bffffffffffffffffffffffffffffffffffffffffffffffffffffffff1916827bffffffffffffffffffffffffffffffffffffffffffffffffffffffff1916145b806104d257506104d182610c59565b5b9050919050565b6060600080546104e8906125f6565b80601f0160208091040260200160405190810160405280929190818152602001828054610514906125f6565b80156105615780601f1061053657610100808354040283529160200191610561565b820191906000526020600020905b81548152906001019060200180831161054457829003601f168201915b5050505050905090565b600061057682610cc3565b6004600083815260200190815260200160002060009054906101000a900473ffffffffffffffffffffffffffffffffffffffff169050919050565b60006105bc826107ef565b90508073ffffffffffffffffffffffffffffffffffffffff168373ffffffffffffffffffffffffffffffffffffffff16141561062d576040517f08c379a000000000000000000000000000000000000000000000000000000000815260040161062490612391565b60405180910390fd5b8073ffffffffffffffffffffffffffffffffffffffff1661064c610d0e565b73ffffffffffffffffffffffffffffffffffffffff16148061067b575061067a81610675610d0e565b610b41565b5b6106ba576040517f08c379a00000000000000000000000000000000000000000000000000000000081526004016106b190612311565b60405180910390fd5b6106c48383610d16565b505050565b60006106d4826107ef565b9050919050565b8073ffffffffffffffffffffffffffffffffffffffff166106fb836107ef565b73ffffffffffffffffffffffffffffffffffffffff1614610751576040517f08c379a0000000000000000000000000000000000000000000000000000000008152600401610748906122f1565b60405180910390fd5b61075a82610dcf565b5050565b61076f610769610d0e565b82610eec565b6107ae576040517f08c379a00000000000000000000000000000000000000000000000000000000081526004016107a5906123b1565b60405180910390fd5b6107b9838383610f81565b505050565b60006107ca60076111e8565b905090565b6107ea83838360405180602001604052806000815250610a77565b505050565b6000806002600084815260200190815260200160002060009054906101000a900473ffffffffffffffffffffffffffffffffffffffff169050600073ffffffffffffffffffffffffffffffffffffffff168173ffffffffffffffffffffffffffffffffffffffff161415610898576040517f08c379a000000000000000000000000000000000000000000000000000000000815260040161088f90612371565b60405180910390fd5b80915050919050565b60008073ffffffffffffffffffffffffffffffffffffffff168273ffffffffffffffffffffffffffffffffffffffff161415610912576040517f08c379a0000000000000000000000000000000000000000000000000000000008152600401610909906122d1565b60405180910390fd5b600360008373ffffffffffffffffffffffffffffffffffffffff1673ffffffffffffffffffffffffffffffffffffffff168152602001908152602001600020549050919050565b6109616111f6565b61096b6000611274565b565b6000600660009054906101000a900473ffffffffffffffffffffffffffffffffffffffff16905090565b6060600180546109a6906125f6565b80601f01602080910402602001604051908101604052809291908181526020018280546109d2906125f6565b8015610a1f5780601f106109f457610100808354040283529160200191610a1f565b820191906000526020600020905b815481529060010190602001808311610a0257829003601f168201915b5050505050905090565b610a3b610a34610d0e565b838361133a565b5050565b6000610a496111f6565b610a5360076114a7565b610a6682610a6160076111e8565b6114bd565b610a7060076111e8565b9050919050565b610a88610a82610d0e565b83610eec565b610ac7576040517f08c379a0000000000000000000000000000000000000000000000000000000008152600401610abe906123b1565b60405180910390fd5b610ad3848484846114db565b50505050565b6060610ae482610cc3565b6000610aee611537565b90506000815111610b0e5760405180602001604052806000815250610b39565b80610b188461154e565b604051602001610b29929190612149565b6040516020818303038152906040525b915050919050565b6000600560008473ffffffffffffffffffffffffffffffffffffffff1673ffffffffffffffffffffffffffffffffffffffff16815260200190815260200160002060008373ffffffffffffffffffffffffffffffffffffffff1673ffffffffffffffffffffffffffffffffffffffff16815260200190815260200160002060009054906101000a900460ff16905092915050565b610bdd6111f6565b600073ffffffffffffffffffffffffffffffffffffffff168173ffffffffffffffffffffffffffffffffffffffff161415610c4d576040517f08c379a0000000000000000000000000000000000000000000000000000000008152600401610c4490612231565b60405180910390fd5b610c5681611274565b50565b60007f01ffc9a7000000000000000000000000000000000000000000000000000000007bffffffffffffffffffffffffffffffffffffffffffffffffffffffff1916827bffffffffffffffffffffffffffffffffffffffffffffffffffffffff1916149050919050565b610ccc816116fb565b610d0b576040517f08c379a0000000000000000000000000000000000000000000000000000000008152600401610d0290612371565b60405180910390fd5b50565b600033905090565b816004600083815260200190815260200160002060006101000a81548173ffffffffffffffffffffffffffffffffffffffff021916908373ffffffffffffffffffffffffffffffffffffffff160217905550808273ffffffffffffffffffffffffffffffffffffffff16610d89836107ef565b73ffffffffffffffffffffffffffffffffffffffff167f8c5be1e5ebec7d5bd14f71427d1e84f3dd0314c0f7b2291e5b200ac8c7c3b92560405160405180910390a45050565b6000610dda826107ef565b9050610de881600084611767565b610df3600083610d16565b6001600360008373ffffffffffffffffffffffffffffffffffffffff1673ffffffffffffffffffffffffffffffffffffffff1681526020019081526020016000206000828254610e43919061250c565b925050819055506002600083815260200190815260200160002060006101000a81549073ffffffffffffffffffffffffffffffffffffffff021916905581600073ffffffffffffffffffffffffffffffffffffffff168273ffffffffffffffffffffffffffffffffffffffff167fddf252ad1be2c89b69c2b068fc378daa952ba7f163c4a11628f55a4df523b3ef60405160405180910390a4610ee88160008461176c565b5050565b600080610ef8836107ef565b90508073ffffffffffffffffffffffffffffffffffffffff168473ffffffffffffffffffffffffffffffffffffffff161480610f3a5750610f398185610b41565b5b80610f7857508373ffffffffffffffffffffffffffffffffffffffff16610f608461056b565b73ffffffffffffffffffffffffffffffffffffffff16145b91505092915050565b8273ffffffffffffffffffffffffffffffffffffffff16610fa1826107ef565b73ffffffffffffffffffffffffffffffffffffffff1614610ff7576040517f08c379a0000000000000000000000000000000000000000000000000000000008152600401610fee90612251565b60405180910390fd5b600073ffffffffffffffffffffffffffffffffffffffff168273ffffffffffffffffffffffffffffffffffffffff161415611067576040517f08c379a000000000000000000000000000000000000000000000000000000000815260040161105e90612291565b60405180910390fd5b611072838383611767565b61107d600082610d16565b6001600360008573ffffffffffffffffffffffffffffffffffffffff1673ffffffffffffffffffffffffffffffffffffffff16815260200190815260200160002060008282546110cd919061250c565b925050819055506001600360008473ffffffffffffffffffffffffffffffffffffffff1673ffffffffffffffffffffffffffffffffffffffff16815260200190815260200160002060008282546111249190612485565b92505081905550816002600083815260200190815260200160002060006101000a81548173ffffffffffffffffffffffffffffffffffffffff021916908373ffffffffffffffffffffffffffffffffffffffff160217905550808273ffffffffffffffffffffffffffffffffffffffff168473ffffffffffffffffffffffffffffffffffffffff167fddf252ad1be2c89b69c2b068fc378daa952ba7f163c4a11628f55a4df523b3ef60405160405180910390a46111e383838361176c565b505050565b600081600001549050919050565b6111fe610d0e565b73ffffffffffffffffffffffffffffffffffffffff1661121c61096d565b73ffffffffffffffffffffffffffffffffffffffff1614611272576040517f08c379a000000000000000000000000000000000000000000000000000000000815260040161126990612351565b60405180910390fd5b565b6000600660009054906101000a900473ffffffffffffffffffffffffffffffffffffffff16905081600660006101000a81548173ffffffffffffffffffffffffffffffffffffffff021916908373ffffffffffffffffffffffffffffffffffffffff1602179055508173ffffffffffffffffffffffffffffffffffffffff168173ffffffffffffffffffffffffffffffffffffffff167f8be0079c531659141344cd1fd0a4f28419497f9722a3daafe3b4186f6b6457e060405160405180910390a35050565b8173ffffffffffffffffffffffffffffffffffffffff168373ffffffffffffffffffffffffffffffffffffffff1614156113a9576040517f08c379a00000000000000000000000000000000000000000000000000000000081526004016113a0906122b1565b60405180910390fd5b80600560008573ffffffffffffffffffffffffffffffffffffffff1673ffffffffffffffffffffffffffffffffffffffff16815260200190815260200160002060008473ffffffffffffffffffffffffffffffffffffffff1673ffffffffffffffffffffffffffffffffffffffff16815260200190815260200160002060006101000a81548160ff0219169083151502179055508173ffffffffffffffffffffffffffffffffffffffff168373ffffffffffffffffffffffffffffffffffffffff167f17307eab39ab6107e8899845ad3d59bd9653f200f220920489ca2b5937696c318360405161149a91906121d4565b60405180910390a3505050565b6001816000016000828254019250508190555050565b6114d7828260405180602001604052806000815250611771565b5050565b6114e6848484610f81565b6114f2848484846117cc565b611531576040517f08c379a000000000000000000000000000000000000000000000000000000000815260040161152890612211565b60405180910390fd5b50505050565b606060405180602001604052806000815250905090565b60606000821415611596576040518060400160405280600181526020017f300000000000000000000000000000000000000000000000000000000000000081525090506116f6565b600082905060005b600082146115c85780806115b190612659565b915050600a826115c191906124db565b915061159e565b60008167ffffffffffffffff81111561160a577f4e487b7100000000000000000000000000000000000000000000000000000000600052604160045260246000fd5b6040519080825280601f01601f19166020018201604052801561163c5781602001600182028036833780820191505090505b5090505b600085146116ef57600182611655919061250c565b9150600a8561166491906126a2565b60306116709190612485565b60f81b8183815181106116ac577f4e487b7100000000000000000000000000000000000000000000000000000000600052603260045260246000fd5b60200101907effffffffffffffffffffffffffffffffffffffffffffffffffffffffffffff1916908160001a905350600a856116e891906124db565b9450611640565b8093505050505b919050565b60008073ffffffffffffffffffffffffffffffffffffffff166002600084815260200190815260200160002060009054906101000a900473ffffffffffffffffffffffffffffffffffffffff1673ffffffffffffffffffffffffffffffffffffffff1614159050919050565b505050565b505050565b61177b8383611963565b61178860008484846117cc565b6117c7576040517f08c379a00000000000000000000000000000000000000000000000000000000081526004016117be90612211565b60405180910390fd5b505050565b60006117ed8473ffffffffffffffffffffffffffffffffffffffff16611b3d565b15611956578373ffffffffffffffffffffffffffffffffffffffff1663150b7a02611816610d0e565b8786866040518563ffffffff1660e01b81526004016118389493929190612188565b602060405180830381600087803b15801561185257600080fd5b505af192505050801561188357506040513d601f19601f820116820180604052508101906118809190611e01565b60015b611906573d80600081146118b3576040519150601f19603f3d011682016040523d82523d6000602084013e6118b8565b606091505b506000815114156118fe576040517f08c379a00000000000000000000000000000000000000000000000000000000081526004016118f590612211565b60405180910390fd5b805181602001fd5b63150b7a0260e01b7bffffffffffffffffffffffffffffffffffffffffffffffffffffffff1916817bffffffffffffffffffffffffffffffffffffffffffffffffffffffff19161491505061195b565b600190505b949350505050565b600073ffffffffffffffffffffffffffffffffffffffff168273ffffffffffffffffffffffffffffffffffffffff1614156119d3576040517f08c379a00000000000000000000000000000000000000000000000000000000081526004016119ca90612331565b60405180910390fd5b6119dc816116fb565b15611a1c576040517f08c379a0000000000000000000000000000000000000000000000000000000008152600401611a1390612271565b60405180910390fd5b611a2860008383611767565b6001600360008473ffffffffffffffffffffffffffffffffffffffff1673ffffffffffffffffffffffffffffffffffffffff1681526020019081526020016000206000828254611a789190612485565b92505081905550816002600083815260200190815260200160002060006101000a81548173ffffffffffffffffffffffffffffffffffffffff021916908373ffffffffffffffffffffffffffffffffffffffff160217905550808273ffffffffffffffffffffffffffffffffffffffff16600073ffffffffffffffffffffffffffffffffffffffff167fddf252ad1be2c89b69c2b068fc378daa952ba7f163c4a11628f55a4df523b3ef60405160405180910390a4611b396000838361176c565b5050565b6000808273ffffffffffffffffffffffffffffffffffffffff163b119050919050565b6000611b73611b6e84612411565b6123ec565b905082815260208101848484011115611b8b57600080fd5b611b968482856125b4565b509392505050565b600081359050611bad81612b34565b92915050565b600081359050611bc281612b4b565b92915050565b600081359050611bd781612b62565b92915050565b600081519050611bec81612b62565b92915050565b600082601f830112611c0357600080fd5b8135611c13848260208601611b60565b91505092915050565b600081359050611c2b81612b79565b92915050565b600060208284031215611c4357600080fd5b6000611c5184828501611b9e565b91505092915050565b60008060408385031215611c6d57600080fd5b6000611c7b85828601611b9e565b9250506020611c8c85828601611b9e565b9150509250929050565b600080600060608486031215611cab57600080fd5b6000611cb986828701611b9e565b9350506020611cca86828701611b9e565b9250506040611cdb86828701611c1c565b9150509250925092565b60008060008060808587031215611cfb57600080fd5b6000611d0987828801611b9e565b9450506020611d1a87828801611b9e565b9350506040611d2b87828801611c1c565b925050606085013567ffffffffffffffff811115611d4857600080fd5b611d5487828801611bf2565b91505092959194509250565b60008060408385031215611d7357600080fd5b6000611d8185828601611b9e565b9250506020611d9285828601611bb3565b9150509250929050565b60008060408385031215611daf57600080fd5b6000611dbd85828601611b9e565b9250506020611dce85828601611c1c565b9150509250929050565b600060208284031215611dea57600080fd5b6000611df884828501611bc8565b91505092915050565b600060208284031215611e1357600080fd5b6000611e2184828501611bdd565b91505092915050565b600060208284031215611e3c57600080fd5b6000611e4a84828501611c1c565b91505092915050565b60008060408385031215611e6657600080fd5b6000611e7485828601611c1c565b9250506020611e8585828601611b9e565b9150509250929050565b611e9881612540565b82525050565b611ea781612552565b82525050565b6000611eb882612442565b611ec28185612458565b9350611ed28185602086016125c3565b611edb8161278f565b840191505092915050565b6000611ef18261244d565b611efb8185612469565b9350611f0b8185602086016125c3565b611f148161278f565b840191505092915050565b6000611f2a8261244d565b611f34818561247a565b9350611f448185602086016125c3565b80840191505092915050565b6000611f5d603283612469565b9150611f68826127a0565b604082019050919050565b6000611f80602683612469565b9150611f8b826127ef565b604082019050919050565b6000611fa3602583612469565b9150611fae8261283e565b604082019050919050565b6000611fc6601c83612469565b9150611fd18261288d565b602082019050919050565b6000611fe9602483612469565b9150611ff4826128b6565b604082019050919050565b600061200c601983612469565b915061201782612905565b602082019050919050565b600061202f602983612469565b915061203a8261292e565b604082019050919050565b6000612052602583612469565b915061205d8261297d565b604082019050919050565b6000612075603e83612469565b9150612080826129cc565b604082019050919050565b6000612098602083612469565b91506120a382612a1b565b602082019050919050565b60006120bb602083612469565b91506120c682612a44565b602082019050919050565b60006120de601883612469565b91506120e982612a6d565b602082019050919050565b6000612101602183612469565b915061210c82612a96565b604082019050919050565b6000612124602e83612469565b915061212f82612ae5565b604082019050919050565b612143816125aa565b82525050565b60006121558285611f1f565b91506121618284611f1f565b91508190509392505050565b60006020820190506121826000830184611e8f565b92915050565b600060808201905061219d6000830187611e8f565b6121aa6020830186611e8f565b6121b7604083018561213a565b81810360608301526121c98184611ead565b905095945050505050565b60006020820190506121e96000830184611e9e565b92915050565b600060208201905081810360008301526122098184611ee6565b905092915050565b6000602082019050818103600083015261222a81611f50565b9050919050565b6000602082019050818103600083015261224a81611f73565b9050919050565b6000602082019050818103600083015261226a81611f96565b9050919050565b6000602082019050818103600083015261228a81611fb9565b9050919050565b600060208201905081810360008301526122aa81611fdc565b9050919050565b600060208201905081810360008301526122ca81611fff565b9050919050565b600060208201905081810360008301526122ea81612022565b9050919050565b6000602082019050818103600083015261230a81612045565b9050919050565b6000602082019050818103600083015261232a81612068565b9050919050565b6000602082019050818103600083015261234a8161208b565b9050919050565b6000602082019050818103600083015261236a816120ae565b9050919050565b6000602082019050818103600083015261238a816120d1565b9050919050565b600060208201905081810360008301526123aa816120f4565b9050919050565b600060208201905081810360008301526123ca81612117565b9050919050565b60006020820190506123e6600083018461213a565b92915050565b60006123f6612407565b90506124028282612628565b919050565b6000604051905090565b600067ffffffffffffffff82111561242c5761242b612760565b5b6124358261278f565b9050602081019050919050565b600081519050919050565b600081519050919050565b600082825260208201905092915050565b600082825260208201905092915050565b600081905092915050565b6000612490826125aa565b915061249b836125aa565b9250827fffffffffffffffffffffffffffffffffffffffffffffffffffffffffffffffff038211156124d0576124cf6126d3565b5b828201905092915050565b60006124e6826125aa565b91506124f1836125aa565b92508261250157612500612702565b5b828204905092915050565b6000612517826125aa565b9150612522836125aa565b925082821015612535576125346126d3565b5b828203905092915050565b600061254b8261258a565b9050919050565b60008115159050919050565b60007fffffffff0000000000000000000000000000000000000000000000000000000082169050919050565b600073ffffffffffffffffffffffffffffffffffffffff82169050919050565b6000819050919050565b82818337600083830152505050565b60005b838110156125e15780820151818401526020810190506125c6565b838111156125f0576000848401525b50505050565b6000600282049050600182168061260e57607f821691505b6020821081141561262257612621612731565b5b50919050565b6126318261278f565b810181811067ffffffffffffffff821117156126505761264f612760565b5b80604052505050565b6000612664826125aa565b91507fffffffffffffffffffffffffffffffffffffffffffffffffffffffffffffffff821415612697576126966126d3565b5b600182019050919050565b60006126ad826125aa565b91506126b8836125aa565b9250826126c8576126c7612702565b5b828206905092915050565b7f4e487b7100000000000000000000000000000000000000000000000000000000600052601160045260246000fd5b7f4e487b7100000000000000000000000000000000000000000000000000000000600052601260045260246000fd5b7f4e487b7100000000000000000000000000000000000000000000000000000000600052602260045260246000fd5b7f4e487b7100000000000000000000000000000000000000000000000000000000600052604160045260246000fd5b6000601f19601f8301169050919050565b7f4552433732313a207472616e7366657220746f206e6f6e20455243373231526560008201527f63656976657220696d706c656d656e7465720000000000000000000000000000602082015250565b7f4f776e61626c653a206e6577206f776e657220697320746865207a65726f206160008201527f6464726573730000000000000000000000000000000000000000000000000000602082015250565b7f4552433732313a207472616e736665722066726f6d20696e636f72726563742060008201527f6f776e6572000000000000000000000000000000000000000000000000000000602082015250565b7f4552433732313a20746f6b656e20616c7265616479206d696e74656400000000600082015250565b7f4552433732313a207472616e7366657220746f20746865207a65726f2061646460008201527f7265737300000000000000000000000000000000000000000000000000000000602082015250565b7f4552433732313a20617070726f766520746f2063616c6c657200000000000000600082015250565b7f4552433732313a2061646472657373207a65726f206973206e6f74206120766160008201527f6c6964206f776e65720000000000000000000000000000000000000000000000602082015250565b7f4f6e6c7920746865204f776e65722063616e2072656d6f76652074686520506160008201527f7263656c61000000000000000000000000000000000000000000000000000000602082015250565b7f4552433732313a20617070726f76652063616c6c6572206973206e6f7420746f60008201527f6b656e206f776e6572206e6f7220617070726f76656420666f7220616c6c0000602082015250565b7f4552433732313a206d696e7420746f20746865207a65726f2061646472657373600082015250565b7f4f776e61626c653a2063616c6c6572206973206e6f7420746865206f776e6572600082015250565b7f4552433732313a20696e76616c696420746f6b656e2049440000000000000000600082015250565b7f4552433732313a20617070726f76616c20746f2063757272656e74206f776e6560008201527f7200000000000000000000000000000000000000000000000000000000000000602082015250565b7f4552433732313a2063616c6c6572206973206e6f7420746f6b656e206f776e6560008201527f72206e6f7220617070726f766564000000000000000000000000000000000000602082015250565b612b3d81612540565b8114612b4857600080fd5b50565b612b5481612552565b8114612b5f57600080fd5b50565b612b6b8161255e565b8114612b7657600080fd5b50565b612b82816125aa565b8114612b8d57600080fd5b5056fea264697066735822122006fd3748e5adce6d81f176aa299779257cfcbb7e06574d29de77540ce762770064736f6c63430008010033",
  "immutableReferences": {
    "2861": [
      {
        "length": 32,
        "start": 3678
      },
      {
        "length": 32,
        "start": 4383
      },
      {
        "length": 32,
        "start": 5080
      },
      {
        "length": 32,
        "start": 5118
      }
    ],
    "2863": [
      {
        "length": 32,
        "start": 1070
      },
      {
        "length": 32,
        "start": 1252
      },
      {
        "length": 32,
        "start": 2943
      },
      {
        "length": 32,
        "start": 6186
      }
    ]
  },
  "source": "// SPDX-License-Identifier: MIT\npragma solidity 0.8.1;\n\nimport './NFTDron.sol';\nimport './NFTParcela.sol';\nimport './FumigaToken.sol';\nimport \"@openzeppelin/contracts/access/Ownable.sol\";\n\n\ncontract DappFumi is Ownable {\n\n    address public immutable  AddrDronToken;\n    address public immutable  AddrParcelaToken;\n    //address public immutable  AddrTokenFumi;\n    \n   struct ParcelaData {\n    uint256 MaxHeight;\n    uint256 MinHeight;\n    string[] Pesti;\n    uint256 idToken;\n    address dir;\n    bool flagCondi;\n    } \n\n    struct DronData {\n    uint256 MaxHeight;\n    uint256 MinHeight;\n    string[] Pesti;\n    uint256 idToken;\n    address dir;\n    bool flagCondi;\n    uint256 CostxM;\n    } \n\n    uint256 public tokensPerEth = 1000;\n\n    ParcelaData[] public _ParcelaDetails;\n    DronData[] public _DronDetails;\n    //mapping(uint256=>ParcelaData)_ParcelaDetails;\n    event newParcelaToken(uint256 token);\n    event newDronToken(uint256 token);\n    event BuyTokens(address buyer, uint256 amountOfEth, uint256 amountOfTokens);\n    event prueba (uint256 amountToBuy, uint256 vendorbalance );\n  \n    FumigaToken Fumigatoken;\n    address addresswallet=0xa3c1603766B70dFA3e260451f9e45BC500541d82;\n    constructor (){\n       \n       AddrDronToken = address(new NFTDron(\"DRONF\",\"NFT de Drones\"));\n       AddrParcelaToken = address(new NFTParcela(\"PARCEF\",\"NFT de Parcelas\"));\n       Fumigatoken=FumigaToken(addresswallet);\n    }\n\n//------------------------ Functions to Drones-------------------------------------\n//---------------------------------------------------------------------------------\n    function createDron(address to,\n        uint256 CostxM,\n        uint256 MaxHeight,\n        uint256 MinHeight,string[] memory Pesti) external returns(uint256){  \n\n        require(MaxHeight > MinHeight, \"Valores alturas incorrectos\");\n        NFTDron _dronToken = NFTDron(AddrDronToken);\n        uint256 tokenId = _dronToken.safeMintDron(to);\n        address owner=_dronToken.ownerOf(tokenId);\n        _DronDetails.push(DronData(MaxHeight,MinHeight,Pesti,tokenId,owner,false,CostxM));\n        emit newDronToken(tokenId);\n        return tokenId;\n  }\n\nfunction getDataDron(uint256 Id) public view returns (DronData memory){\n           return( _DronDetails[(Id-1)]);\n            \n        }\n\n   function RemoveDron(uint256 Id) public  {\n         NFTDron _dron = NFTDron(AddrDronToken);\n         require(_dron.ownerOf(Id)==msg.sender, \"Only the Owner can remove the Parcela\");\n         _dron._burnDron(Id,msg.sender);\n         delete _DronDetails[(Id-1)];\n   }\nfunction getAllDrones()public view returns(DronData[]memory data){\n        return(_DronDetails);\n    }\nfunction getBalanceOwnerDron(address addr)public view returns(uint256){\n      NFTDron _dronToken = NFTDron(AddrDronToken);\n        return(_dronToken.balanceOf(addr));\n    }\n\n  \n//------------------------ Functions to Parcelas-------------------------------------\n//---------------------------------------------------------------------------------\n\n  function createParcela(address to,\n        uint256 MaxHeight,\n        uint256 MinHeight,string[] memory Pesti) external returns(uint256){  \n\n        require(MaxHeight > MinHeight, \"Valores alturas incorrectos\");\n        NFTParcela _parcelaToken = NFTParcela(AddrParcelaToken);\n        uint256 tokenId = _parcelaToken.safeMintParcela(to);\n        address owner=_parcelaToken.ownerOf(tokenId);\n        _ParcelaDetails.push(ParcelaData(MaxHeight,MinHeight,Pesti,tokenId,owner,false));\n        emit newParcelaToken(tokenId);\n        return tokenId;\n  }\n\n    function getDataParcela(uint256 Id) public view returns (ParcelaData memory){\n           return( _ParcelaDetails[(Id-1)]);\n            \n        }\n\n   function RemoveParcela(uint256 Id) public  {\n         NFTParcela _parcela = NFTParcela(AddrParcelaToken);\n         require(_parcela.ownerOf(Id)==msg.sender, \"Only the Owner can remove the Parcela\");\n         _parcela._burnParcela(Id,msg.sender);\n         delete _ParcelaDetails[(Id-1)];\n   }\n\n    \n      function getAllParcelas()public view returns(ParcelaData[]memory data){\n        return(_ParcelaDetails);\n    }\n\nfunction getBalanceOwnerParcela(address addr)public view returns(uint256){\n      NFTParcela _ParcelaToken = NFTParcela(AddrParcelaToken);\n        return(_ParcelaToken.balanceOf(addr));\n    }\n\n\n\n}",
  "sourcePath": "/Users/wchaconc/Desktop/Unir_Master_BlockChain/TFE/frontend/contrats/DappFumi.sol",
  "compiler": {
    "name": "solc",
    "version": "0.8.1+commit.df193b15.Emscripten.clang"
  },
  "schemaVersion": "3.4.7",
  "updatedAt": "2022-07-04T16:57:30.530Z",
  "networkType": "ethereum",
  "devdoc": {
    "kind": "dev",
    "methods": {
      "owner()": {
        "details": "Returns the address of the current owner."
      },
      "renounceOwnership()": {
        "details": "Leaves the contract without owner. It will not be possible to call `onlyOwner` functions anymore. Can only be called by the current owner. NOTE: Renouncing ownership will leave the contract without an owner, thereby removing any functionality that is only available to the owner."
      },
      "transferOwnership(address)": {
        "details": "Transfers ownership of the contract to a new account (`newOwner`). Can only be called by the current owner."
      }
    },
    "version": 1
  },
  "userdoc": {
    "kind": "user",
    "methods": {},
    "version": 1
  }
}