{
  "contractName": "FumigaToken",
  "abi": [
    {
      "inputs": [],
      "stateMutability": "nonpayable",
      "type": "constructor"
    },
    {
      "anonymous": false,
      "inputs": [
        {
          "indexed": true,
          "internalType": "address",
          "name": "owner",
          "type": "address"
        },
        {
          "indexed": true,
          "internalType": "address",
          "name": "spender",
          "type": "address"
        },
        {
          "indexed": false,
          "internalType": "uint256",
          "name": "value",
          "type": "uint256"
        }
      ],
      "name": "Approval",
      "type": "event"
    },
    {
      "anonymous": false,
      "inputs": [
        {
          "indexed": true,
          "internalType": "address",
          "name": "from",
          "type": "address"
        },
        {
          "indexed": true,
          "internalType": "address",
          "name": "to",
          "type": "address"
        },
        {
          "indexed": false,
          "internalType": "uint256",
          "name": "value",
          "type": "uint256"
        }
      ],
      "name": "Transfer",
      "type": "event"
    },
    {
      "inputs": [
        {
          "internalType": "address",
          "name": "owner",
          "type": "address"
        },
        {
          "internalType": "address",
          "name": "spender",
          "type": "address"
        }
      ],
      "name": "allowance",
      "outputs": [
        {
          "internalType": "uint256",
          "name": "",
          "type": "uint256"
        }
      ],
      "stateMutability": "view",
      "type": "function",
      "constant": true
    },
    {
      "inputs": [
        {
          "internalType": "address",
          "name": "account",
          "type": "address"
        }
      ],
      "name": "balanceOf",
      "outputs": [
        {
          "internalType": "uint256",
          "name": "",
          "type": "uint256"
        }
      ],
      "stateMutability": "view",
      "type": "function",
      "constant": true
    },
    {
      "inputs": [],
      "name": "decimals",
      "outputs": [
        {
          "internalType": "uint8",
          "name": "",
          "type": "uint8"
        }
      ],
      "stateMutability": "view",
      "type": "function",
      "constant": true
    },
    {
      "inputs": [
        {
          "internalType": "address",
          "name": "spender",
          "type": "address"
        },
        {
          "internalType": "uint256",
          "name": "subtractedValue",
          "type": "uint256"
        }
      ],
      "name": "decreaseAllowance",
      "outputs": [
        {
          "internalType": "bool",
          "name": "",
          "type": "bool"
        }
      ],
      "stateMutability": "nonpayable",
      "type": "function"
    },
    {
      "inputs": [
        {
          "internalType": "address",
          "name": "spender",
          "type": "address"
        },
        {
          "internalType": "uint256",
          "name": "addedValue",
          "type": "uint256"
        }
      ],
      "name": "increaseAllowance",
      "outputs": [
        {
          "internalType": "bool",
          "name": "",
          "type": "bool"
        }
      ],
      "stateMutability": "nonpayable",
      "type": "function"
    },
    {
      "inputs": [],
      "name": "name",
      "outputs": [
        {
          "internalType": "string",
          "name": "",
          "type": "string"
        }
      ],
      "stateMutability": "view",
      "type": "function",
      "constant": true
    },
    {
      "inputs": [],
      "name": "owner",
      "outputs": [
        {
          "internalType": "address",
          "name": "",
          "type": "address"
        }
      ],
      "stateMutability": "view",
      "type": "function",
      "constant": true
    },
    {
      "inputs": [],
      "name": "symbol",
      "outputs": [
        {
          "internalType": "string",
          "name": "",
          "type": "string"
        }
      ],
      "stateMutability": "view",
      "type": "function",
      "constant": true
    },
    {
      "inputs": [],
      "name": "tokenPrice",
      "outputs": [
        {
          "internalType": "uint256",
          "name": "",
          "type": "uint256"
        }
      ],
      "stateMutability": "view",
      "type": "function",
      "constant": true
    },
    {
      "inputs": [],
      "name": "totalSupply",
      "outputs": [
        {
          "internalType": "uint256",
          "name": "",
          "type": "uint256"
        }
      ],
      "stateMutability": "view",
      "type": "function",
      "constant": true
    },
    {
      "inputs": [
        {
          "internalType": "address",
          "name": "to",
          "type": "address"
        },
        {
          "internalType": "uint256",
          "name": "amount",
          "type": "uint256"
        }
      ],
      "name": "transfer",
      "outputs": [
        {
          "internalType": "bool",
          "name": "",
          "type": "bool"
        }
      ],
      "stateMutability": "nonpayable",
      "type": "function"
    },
    {
      "inputs": [],
      "name": "balance",
      "outputs": [
        {
          "internalType": "uint256",
          "name": "",
          "type": "uint256"
        }
      ],
      "stateMutability": "view",
      "type": "function",
      "constant": true
    },
    {
      "inputs": [
        {
          "internalType": "address",
          "name": "to",
          "type": "address"
        }
      ],
      "name": "balanceFrom",
      "outputs": [
        {
          "internalType": "uint256",
          "name": "",
          "type": "uint256"
        }
      ],
      "stateMutability": "view",
      "type": "function",
      "constant": true
    },
    {
      "inputs": [
        {
          "internalType": "address",
          "name": "spender",
          "type": "address"
        },
        {
          "internalType": "uint256",
          "name": "amount",
          "type": "uint256"
        }
      ],
      "name": "approve",
      "outputs": [
        {
          "internalType": "bool",
          "name": "",
          "type": "bool"
        }
      ],
      "stateMutability": "nonpayable",
      "type": "function"
    },
    {
      "inputs": [
        {
          "internalType": "address",
          "name": "acc",
          "type": "address"
        },
        {
          "internalType": "address",
          "name": "spender",
          "type": "address"
        },
        {
          "internalType": "uint256",
          "name": "amount",
          "type": "uint256"
        }
      ],
      "name": "approveFrom",
      "outputs": [
        {
          "internalType": "bool",
          "name": "",
          "type": "bool"
        }
      ],
      "stateMutability": "nonpayable",
      "type": "function"
    },
    {
      "inputs": [
        {
          "internalType": "uint256",
          "name": "_amount",
          "type": "uint256"
        }
      ],
      "name": "buy",
      "outputs": [],
      "stateMutability": "payable",
      "type": "function",
      "payable": true
    },
    {
      "inputs": [
        {
          "internalType": "uint256",
          "name": "_amount",
          "type": "uint256"
        },
        {
          "internalType": "address",
          "name": "to",
          "type": "address"
        }
      ],
      "name": "TranferTo",
      "outputs": [],
      "stateMutability": "nonpayable",
      "type": "function"
    },
    {
      "inputs": [
        {
          "internalType": "address",
          "name": "from",
          "type": "address"
        },
        {
          "internalType": "address",
          "name": "to",
          "type": "address"
        },
        {
          "internalType": "uint256",
          "name": "amount",
          "type": "uint256"
        }
      ],
      "name": "transferFrom",
      "outputs": [
        {
          "internalType": "bool",
          "name": "",
          "type": "bool"
        }
      ],
      "stateMutability": "nonpayable",
      "type": "function"
    }
  ],
  "bytecode": "0x60806040523480156200001157600080fd5b506040518060400160405280600b81526020017f46756d696761546f6b656e0000000000000000000000000000000000000000008152506040518060400160405280600781526020017f46554d494741540000000000000000000000000000000000000000000000000081525081600390805190602001906200009692919062000298565b508060049080519060200190620000af92919062000298565b505050620000ce3369d3c21bcecceda10000006200011560201b60201c565b33600560006101000a81548173ffffffffffffffffffffffffffffffffffffffff021916908373ffffffffffffffffffffffffffffffffffffffff160217905550620004f4565b600073ffffffffffffffffffffffffffffffffffffffff168273ffffffffffffffffffffffffffffffffffffffff16141562000188576040517f08c379a00000000000000000000000000000000000000000000000000000000081526004016200017f9062000380565b60405180910390fd5b6200019c600083836200028e60201b60201c565b8060026000828254620001b09190620003d0565b92505081905550806000808473ffffffffffffffffffffffffffffffffffffffff1673ffffffffffffffffffffffffffffffffffffffff1681526020019081526020016000206000828254620002079190620003d0565b925050819055508173ffffffffffffffffffffffffffffffffffffffff16600073ffffffffffffffffffffffffffffffffffffffff167fddf252ad1be2c89b69c2b068fc378daa952ba7f163c4a11628f55a4df523b3ef836040516200026e9190620003a2565b60405180910390a36200028a600083836200029360201b60201c565b5050565b505050565b505050565b828054620002a69062000437565b90600052602060002090601f016020900481019282620002ca576000855562000316565b82601f10620002e557805160ff191683800117855562000316565b8280016001018555821562000316579182015b8281111562000315578251825591602001919060010190620002f8565b5b50905062000325919062000329565b5090565b5b80821115620003445760008160009055506001016200032a565b5090565b600062000357601f83620003bf565b91506200036482620004cb565b602082019050919050565b6200037a816200042d565b82525050565b600060208201905081810360008301526200039b8162000348565b9050919050565b6000602082019050620003b960008301846200036f565b92915050565b600082825260208201905092915050565b6000620003dd826200042d565b9150620003ea836200042d565b9250827fffffffffffffffffffffffffffffffffffffffffffffffffffffffffffffffff038211156200042257620004216200046d565b5b828201905092915050565b6000819050919050565b600060028204905060018216806200045057607f821691505b602082108114156200046757620004666200049c565b5b50919050565b7f4e487b7100000000000000000000000000000000000000000000000000000000600052601160045260246000fd5b7f4e487b7100000000000000000000000000000000000000000000000000000000600052602260045260246000fd5b7f45524332303a206d696e7420746f20746865207a65726f206164647265737300600082015250565b6118c980620005046000396000f3fe6080604052600436106101095760003560e01c80638da5cb5b11610095578063a9059cbb11610064578063a9059cbb146103a7578063b69ef8a8146103e4578063d60f6c641461040f578063d96a094a1461044c578063dd62ed3e1461046857610109565b80638da5cb5b146102eb57806391586b241461031657806395d89b411461033f578063a457c2d71461036a57610109565b8063313ce567116100dc578063313ce567146101de578063395093511461020957806352ec85291461024657806370a08231146102835780637ff9b596146102c057610109565b806306fdde031461010e578063095ea7b31461013957806318160ddd1461017657806323b872dd146101a1575b600080fd5b34801561011a57600080fd5b506101236104a5565b604051610130919061127d565b60405180910390f35b34801561014557600080fd5b50610160600480360381019061015b9190610ff6565b610537565b60405161016d9190611262565b60405180910390f35b34801561018257600080fd5b5061018b610570565b60405161019891906113bf565b60405180910390f35b3480156101ad57600080fd5b506101c860048036038101906101c39190610fa7565b61057a565b6040516101d59190611262565b60405180910390f35b3480156101ea57600080fd5b506101f36105a2565b60405161020091906113da565b60405180910390f35b34801561021557600080fd5b50610230600480360381019061022b9190610ff6565b6105ab565b60405161023d9190611262565b60405180910390f35b34801561025257600080fd5b5061026d60048036038101906102689190610fa7565b6105e2565b60405161027a9190611262565b60405180910390f35b34801561028f57600080fd5b506102aa60048036038101906102a59190610f42565b6105fa565b6040516102b791906113bf565b60405180910390f35b3480156102cc57600080fd5b506102d5610642565b6040516102e291906113bf565b60405180910390f35b3480156102f757600080fd5b5061030061064e565b60405161030d9190611247565b60405180910390f35b34801561032257600080fd5b5061033d6004803603810190610338919061105b565b610674565b005b34801561034b57600080fd5b5061035461070d565b604051610361919061127d565b60405180910390f35b34801561037657600080fd5b50610391600480360381019061038c9190610ff6565b61079f565b60405161039e9190611262565b60405180910390f35b3480156103b357600080fd5b506103ce60048036038101906103c99190610ff6565b610816565b6040516103db9190611262565b60405180910390f35b3480156103f057600080fd5b506103f9610839565b60405161040691906113bf565b60405180910390f35b34801561041b57600080fd5b5061043660048036038101906104319190610f42565b610870565b60405161044391906113bf565b60405180910390f35b61046660048036038101906104619190611032565b610887565b005b34801561047457600080fd5b5061048f600480360381019061048a9190610f6b565b6109a7565b60405161049c91906113bf565b60405180910390f35b6060600380546104b490611549565b80601f01602080910402602001604051908101604052809291908181526020018280546104e090611549565b801561052d5780601f106105025761010080835404028352916020019161052d565b820191906000526020600020905b81548152906001019060200180831161051057829003601f168201915b5050505050905090565b6000610566600560009054906101000a900473ffffffffffffffffffffffffffffffffffffffff168484610a2e565b6001905092915050565b6000600254905090565b60008083905061058b858285610bf9565b610596858585610c85565b60019150509392505050565b60006012905090565b6000806105b6610f06565b90506105d78185856105c885896109a7565b6105d29190611411565b610a2e565b600191505092915050565b60006105ef848484610a2e565b600190509392505050565b60008060008373ffffffffffffffffffffffffffffffffffffffff1673ffffffffffffffffffffffffffffffffffffffff168152602001908152602001600020549050919050565b67016345785d8a000081565b600560009054906101000a900473ffffffffffffffffffffffffffffffffffffffff1681565b6000339050600061068482610870565b9050838110156106c9576040517f08c379a00000000000000000000000000000000000000000000000000000000081526004016106c09061133f565b60405180910390fd5b6106e78284670de0b6b3a7640000876106e29190611467565b6105e2565b506107068284670de0b6b3a7640000876107019190611467565b61057a565b5050505050565b60606004805461071c90611549565b80601f016020809104026020016040519081016040528092919081815260200182805461074890611549565b80156107955780601f1061076a57610100808354040283529160200191610795565b820191906000526020600020905b81548152906001019060200180831161077857829003601f168201915b5050505050905090565b6000806107aa610f06565b905060006107b882866109a7565b9050838110156107fd576040517f08c379a00000000000000000000000000000000000000000000000000000000081526004016107f49061139f565b60405180910390fd5b61080a8286868403610a2e565b60019250505092915050565b600080610821610f06565b905061082e818585610c85565b600191505092915050565b600080610867600560009054906101000a900473ffffffffffffffffffffffffffffffffffffffff166105fa565b90508091505090565b60008061087c836105fa565b905080915050919050565b67016345785d8a00008161089b9190611467565b34146108dc576040517f08c379a00000000000000000000000000000000000000000000000000000000081526004016108d3906112ff565b60405180910390fd5b6108f933670de0b6b3a7640000836108f49190611467565b610537565b5061093a600560009054906101000a900473ffffffffffffffffffffffffffffffffffffffff1633670de0b6b3a7640000846109359190611467565b61057a565b50600560009054906101000a900473ffffffffffffffffffffffffffffffffffffffff1673ffffffffffffffffffffffffffffffffffffffff166108fc349081150290604051600060405180830381858888f193505050501580156109a3573d6000803e3d6000fd5b5050565b6000600160008473ffffffffffffffffffffffffffffffffffffffff1673ffffffffffffffffffffffffffffffffffffffff16815260200190815260200160002060008373ffffffffffffffffffffffffffffffffffffffff1673ffffffffffffffffffffffffffffffffffffffff16815260200190815260200160002054905092915050565b600073ffffffffffffffffffffffffffffffffffffffff168373ffffffffffffffffffffffffffffffffffffffff161415610a9e576040517f08c379a0000000000000000000000000000000000000000000000000000000008152600401610a959061137f565b60405180910390fd5b600073ffffffffffffffffffffffffffffffffffffffff168273ffffffffffffffffffffffffffffffffffffffff161415610b0e576040517f08c379a0000000000000000000000000000000000000000000000000000000008152600401610b05906112bf565b60405180910390fd5b80600160008573ffffffffffffffffffffffffffffffffffffffff1673ffffffffffffffffffffffffffffffffffffffff16815260200190815260200160002060008473ffffffffffffffffffffffffffffffffffffffff1673ffffffffffffffffffffffffffffffffffffffff168152602001908152602001600020819055508173ffffffffffffffffffffffffffffffffffffffff168373ffffffffffffffffffffffffffffffffffffffff167f8c5be1e5ebec7d5bd14f71427d1e84f3dd0314c0f7b2291e5b200ac8c7c3b92583604051610bec91906113bf565b60405180910390a3505050565b6000610c0584846109a7565b90507fffffffffffffffffffffffffffffffffffffffffffffffffffffffffffffffff8114610c7f5781811015610c71576040517f08c379a0000000000000000000000000000000000000000000000000000000008152600401610c68906112df565b60405180910390fd5b610c7e8484848403610a2e565b5b50505050565b600073ffffffffffffffffffffffffffffffffffffffff168373ffffffffffffffffffffffffffffffffffffffff161415610cf5576040517f08c379a0000000000000000000000000000000000000000000000000000000008152600401610cec9061135f565b60405180910390fd5b600073ffffffffffffffffffffffffffffffffffffffff168273ffffffffffffffffffffffffffffffffffffffff161415610d65576040517f08c379a0000000000000000000000000000000000000000000000000000000008152600401610d5c9061129f565b60405180910390fd5b610d70838383610f0e565b60008060008573ffffffffffffffffffffffffffffffffffffffff1673ffffffffffffffffffffffffffffffffffffffff16815260200190815260200160002054905081811015610df6576040517f08c379a0000000000000000000000000000000000000000000000000000000008152600401610ded9061131f565b60405180910390fd5b8181036000808673ffffffffffffffffffffffffffffffffffffffff1673ffffffffffffffffffffffffffffffffffffffff16815260200190815260200160002081905550816000808573ffffffffffffffffffffffffffffffffffffffff1673ffffffffffffffffffffffffffffffffffffffff1681526020019081526020016000206000828254610e899190611411565b925050819055508273ffffffffffffffffffffffffffffffffffffffff168473ffffffffffffffffffffffffffffffffffffffff167fddf252ad1be2c89b69c2b068fc378daa952ba7f163c4a11628f55a4df523b3ef84604051610eed91906113bf565b60405180910390a3610f00848484610f13565b50505050565b600033905090565b505050565b505050565b600081359050610f2781611865565b92915050565b600081359050610f3c8161187c565b92915050565b600060208284031215610f5457600080fd5b6000610f6284828501610f18565b91505092915050565b60008060408385031215610f7e57600080fd5b6000610f8c85828601610f18565b9250506020610f9d85828601610f18565b9150509250929050565b600080600060608486031215610fbc57600080fd5b6000610fca86828701610f18565b9350506020610fdb86828701610f18565b9250506040610fec86828701610f2d565b9150509250925092565b6000806040838503121561100957600080fd5b600061101785828601610f18565b925050602061102885828601610f2d565b9150509250929050565b60006020828403121561104457600080fd5b600061105284828501610f2d565b91505092915050565b6000806040838503121561106e57600080fd5b600061107c85828601610f2d565b925050602061108d85828601610f18565b9150509250929050565b6110a0816114c1565b82525050565b6110af816114d3565b82525050565b60006110c0826113f5565b6110ca8185611400565b93506110da818560208601611516565b6110e3816115d9565b840191505092915050565b60006110fb602383611400565b9150611106826115ea565b604082019050919050565b600061111e602283611400565b915061112982611639565b604082019050919050565b6000611141601d83611400565b915061114c82611688565b602082019050919050565b6000611164602083611400565b915061116f826116b1565b602082019050919050565b6000611187602683611400565b9150611192826116da565b604082019050919050565b60006111aa602283611400565b91506111b582611729565b604082019050919050565b60006111cd602583611400565b91506111d882611778565b604082019050919050565b60006111f0602483611400565b91506111fb826117c7565b604082019050919050565b6000611213602583611400565b915061121e82611816565b604082019050919050565b611232816114ff565b82525050565b61124181611509565b82525050565b600060208201905061125c6000830184611097565b92915050565b600060208201905061127760008301846110a6565b92915050565b6000602082019050818103600083015261129781846110b5565b905092915050565b600060208201905081810360008301526112b8816110ee565b9050919050565b600060208201905081810360008301526112d881611111565b9050919050565b600060208201905081810360008301526112f881611134565b9050919050565b6000602082019050818103600083015261131881611157565b9050919050565b600060208201905081810360008301526113388161117a565b9050919050565b600060208201905081810360008301526113588161119d565b9050919050565b60006020820190508181036000830152611378816111c0565b9050919050565b60006020820190508181036000830152611398816111e3565b9050919050565b600060208201905081810360008301526113b881611206565b9050919050565b60006020820190506113d46000830184611229565b92915050565b60006020820190506113ef6000830184611238565b92915050565b600081519050919050565b600082825260208201905092915050565b600061141c826114ff565b9150611427836114ff565b9250827fffffffffffffffffffffffffffffffffffffffffffffffffffffffffffffffff0382111561145c5761145b61157b565b5b828201905092915050565b6000611472826114ff565b915061147d836114ff565b9250817fffffffffffffffffffffffffffffffffffffffffffffffffffffffffffffffff04831182151516156114b6576114b561157b565b5b828202905092915050565b60006114cc826114df565b9050919050565b60008115159050919050565b600073ffffffffffffffffffffffffffffffffffffffff82169050919050565b6000819050919050565b600060ff82169050919050565b60005b83811015611534578082015181840152602081019050611519565b83811115611543576000848401525b50505050565b6000600282049050600182168061156157607f821691505b60208210811415611575576115746115aa565b5b50919050565b7f4e487b7100000000000000000000000000000000000000000000000000000000600052601160045260246000fd5b7f4e487b7100000000000000000000000000000000000000000000000000000000600052602260045260246000fd5b6000601f19601f8301169050919050565b7f45524332303a207472616e7366657220746f20746865207a65726f206164647260008201527f6573730000000000000000000000000000000000000000000000000000000000602082015250565b7f45524332303a20617070726f766520746f20746865207a65726f20616464726560008201527f7373000000000000000000000000000000000000000000000000000000000000602082015250565b7f45524332303a20696e73756666696369656e7420616c6c6f77616e6365000000600082015250565b7f4e65656420746f2073656e6420657861637420616d6f756e74206f6620776569600082015250565b7f45524332303a207472616e7366657220616d6f756e742065786365656473206260008201527f616c616e63650000000000000000000000000000000000000000000000000000602082015250565b7f596f7520646f6e7420656e6f75676820746f6b656e7320746f207472616e736660008201527f6572000000000000000000000000000000000000000000000000000000000000602082015250565b7f45524332303a207472616e736665722066726f6d20746865207a65726f20616460008201527f6472657373000000000000000000000000000000000000000000000000000000602082015250565b7f45524332303a20617070726f76652066726f6d20746865207a65726f2061646460008201527f7265737300000000000000000000000000000000000000000000000000000000602082015250565b7f45524332303a2064656372656173656420616c6c6f77616e63652062656c6f7760008201527f207a65726f000000000000000000000000000000000000000000000000000000602082015250565b61186e816114c1565b811461187957600080fd5b50565b611885816114ff565b811461189057600080fd5b5056fea26469706673582212205685ad2b73cd97d6a9deecd6000afefeb5498bf2efdf454352e943f7dfd0514764736f6c63430008010033",
  "immutableReferences": {},
  "source": "// SPDX-License-Identifier: MIT\npragma solidity 0.8.1;\n\nimport \"@openzeppelin/contracts/token/ERC20/ERC20.sol\";\n\ncontract FumigaToken is ERC20 {\n\n uint256 public constant tokenPrice = 0.1*10**18; // 1 token for 5 wei\n address public  owner;\n\n    constructor() ERC20(\"FumigaToken\", \"FUMIGAT\")  {\n      _mint(msg.sender, 1000000 * 10 ** 18);\n      owner = msg.sender;\n    }\n\n    function balance() public view returns(uint256) {\n      uint256 dato=balanceOf(owner);\n      return(dato);\n    }\n\n    function balanceFrom(address to) public view returns(uint256) {\n      uint256 dato=balanceOf(to);\n      return(dato);\n    }\n\n    function approve(address spender, uint256 amount) public  override returns (bool) {\n        \n        _approve(owner, spender, amount);\n        return true;\n    }\n\n    function approveFrom(address acc ,address spender, uint256 amount) public  returns (bool) {\n        \n        _approve(acc, spender, amount);\n        return true;\n    }\n    \n    function buy(uint256 _amount) external payable {\n        // e.g. the buyer wants 100 tokens, needs to send 500 wei\n    \n        require(msg.value == _amount * tokenPrice, 'Need to send exact amount of wei');\n        \n        /*\n         * sends the requested amount of tokens\n         * from this contract address\n         * to the buyer\n         */\n        approve(msg.sender, (_amount*(10**18)));\n        transferFrom(owner, msg.sender, (_amount*(10**18)));\n        payable(owner).transfer(msg.value);\n    }\n    function TranferTo(uint256 _amount, address to) public  {\n        // e.g. the buyer wants 100 tokens, needs to send 500 wei\n        address AccFrom=msg.sender;\n        uint256 balnceFrom=balanceFrom(AccFrom);\n        require(balnceFrom >= _amount, 'You dont enough tokens to transfer');\n\n        approveFrom(AccFrom, to, (_amount*(10**18)));\n        transferFrom(AccFrom, to, (_amount*(10**18)));\n    }\n\n    function transferFrom(\n        address from,\n        address to,\n        uint256 amount\n    ) public  override returns (bool) {\n        address spender = to;\n        _spendAllowance(from, spender, amount);\n        _transfer(from, to, amount);\n        return true;\n    }\n\n   \n\n}",
  "sourcePath": "/Users/wchaconc/Desktop/Unir_Master_BlockChain/TFE/frontend/contrats/FumigaToken.sol",
  "compiler": {
    "name": "solc",
    "version": "0.8.1+commit.df193b15.Emscripten.clang"
  },
  "schemaVersion": "3.4.7",
  "updatedAt": "2022-07-04T16:57:23.920Z",
  "networkType": "ethereum",
  "devdoc": {
    "kind": "dev",
    "methods": {
      "allowance(address,address)": {
        "details": "See {IERC20-allowance}."
      },
      "approve(address,uint256)": {
        "details": "See {IERC20-approve}. NOTE: If `amount` is the maximum `uint256`, the allowance is not updated on `transferFrom`. This is semantically equivalent to an infinite approval. Requirements: - `spender` cannot be the zero address."
      },
      "balanceOf(address)": {
        "details": "See {IERC20-balanceOf}."
      },
      "decimals()": {
        "details": "Returns the number of decimals used to get its user representation. For example, if `decimals` equals `2`, a balance of `505` tokens should be displayed to a user as `5.05` (`505 / 10 ** 2`). Tokens usually opt for a value of 18, imitating the relationship between Ether and Wei. This is the value {ERC20} uses, unless this function is overridden; NOTE: This information is only used for _display_ purposes: it in no way affects any of the arithmetic of the contract, including {IERC20-balanceOf} and {IERC20-transfer}."
      },
      "decreaseAllowance(address,uint256)": {
        "details": "Atomically decreases the allowance granted to `spender` by the caller. This is an alternative to {approve} that can be used as a mitigation for problems described in {IERC20-approve}. Emits an {Approval} event indicating the updated allowance. Requirements: - `spender` cannot be the zero address. - `spender` must have allowance for the caller of at least `subtractedValue`."
      },
      "increaseAllowance(address,uint256)": {
        "details": "Atomically increases the allowance granted to `spender` by the caller. This is an alternative to {approve} that can be used as a mitigation for problems described in {IERC20-approve}. Emits an {Approval} event indicating the updated allowance. Requirements: - `spender` cannot be the zero address."
      },
      "name()": {
        "details": "Returns the name of the token."
      },
      "symbol()": {
        "details": "Returns the symbol of the token, usually a shorter version of the name."
      },
      "totalSupply()": {
        "details": "See {IERC20-totalSupply}."
      },
      "transfer(address,uint256)": {
        "details": "See {IERC20-transfer}. Requirements: - `to` cannot be the zero address. - the caller must have a balance of at least `amount`."
      },
      "transferFrom(address,address,uint256)": {
        "details": "See {IERC20-transferFrom}. Emits an {Approval} event indicating the updated allowance. This is not required by the EIP. See the note at the beginning of {ERC20}. NOTE: Does not update the allowance if the current allowance is the maximum `uint256`. Requirements: - `from` and `to` cannot be the zero address. - `from` must have a balance of at least `amount`. - the caller must have allowance for ``from``'s tokens of at least `amount`."
      }
    },
    "version": 1
  },
  "userdoc": {
    "kind": "user",
    "methods": {},
    "version": 1
  }
}