{
  "contractName": "prueba1",
  "abi": [
    {
      "inputs": [],
      "stateMutability": "nonpayable",
      "type": "constructor"
    },
    {
      "inputs": [
        {
          "internalType": "uint256",
          "name": "",
          "type": "uint256"
        }
      ],
      "name": "contacts",
      "outputs": [
        {
          "internalType": "uint256",
          "name": "id",
          "type": "uint256"
        },
        {
          "internalType": "string",
          "name": "name",
          "type": "string"
        },
        {
          "internalType": "string",
          "name": "phone",
          "type": "string"
        }
      ],
      "stateMutability": "view",
      "type": "function",
      "constant": true
    },
    {
      "inputs": [],
      "name": "count",
      "outputs": [
        {
          "internalType": "uint256",
          "name": "",
          "type": "uint256"
        }
      ],
      "stateMutability": "view",
      "type": "function",
      "constant": true
    },
    {
      "inputs": [
        {
          "internalType": "string",
          "name": "_name",
          "type": "string"
        },
        {
          "internalType": "string",
          "name": "_phone",
          "type": "string"
        }
      ],
      "name": "createContact",
      "outputs": [],
      "stateMutability": "nonpayable",
      "type": "function"
    },
    {
      "inputs": [
        {
          "internalType": "uint256",
          "name": "id",
          "type": "uint256"
        }
      ],
      "name": "getContact",
      "outputs": [
        {
          "components": [
            {
              "internalType": "uint256",
              "name": "id",
              "type": "uint256"
            },
            {
              "internalType": "string",
              "name": "name",
              "type": "string"
            },
            {
              "internalType": "string",
              "name": "phone",
              "type": "string"
            }
          ],
          "internalType": "struct prueba1.Contact",
          "name": "data",
          "type": "tuple"
        }
      ],
      "stateMutability": "view",
      "type": "function",
      "constant": true
    }
  ],
  "bytecode": "0x6080604052600080553480156200001557600080fd5b50620000926040518060400160405280600c81526020017f5a616661722053616c65656d00000000000000000000000000000000000000008152506040518060400160405280600981526020017f31323331323331323300000000000000000000000000000000000000000000008152506200009860201b60201c565b620002cd565b600080815480929190620000ac906200021a565b9190505550604051806060016040528060005481526020018381526020018281525060016000805481526020019081526020016000206000820151816000015560208201518160010190805190602001906200010a92919062000131565b5060408201518160020190805190602001906200012992919062000131565b509050505050565b8280546200013f9062000297565b90600052602060002090601f016020900481019282620001635760008555620001af565b82601f106200017e57805160ff1916838001178555620001af565b82800160010185558215620001af579182015b82811115620001ae57825182559160200191906001019062000191565b5b509050620001be9190620001c2565b5090565b5b80821115620001dd576000816000905550600101620001c3565b5090565b7f4e487b7100000000000000000000000000000000000000000000000000000000600052601160045260246000fd5b6000819050919050565b6000620002278262000210565b91507fffffffffffffffffffffffffffffffffffffffffffffffffffffffffffffffff8214156200025d576200025c620001e1565b5b600182019050919050565b7f4e487b7100000000000000000000000000000000000000000000000000000000600052602260045260246000fd5b60006002820490506001821680620002b057607f821691505b60208210811415620002c757620002c662000268565b5b50919050565b6109ec80620002dd6000396000f3fe608060405234801561001057600080fd5b506004361061004c5760003560e01c806306661abd146100515780633dce49201461006f578063e0f478cb1461008b578063e6505e1e146100bd575b600080fd5b6100596100ed565b60405161006691906104f8565b60405180910390f35b6100896004803603810190610084919061066d565b6100f3565b005b6100a560048036038101906100a09190610711565b610186565b6040516100b4939291906107c6565b60405180910390f35b6100d760048036038101906100d29190610711565b6102c0565b6040516100e491906108bb565b60405180910390f35b60005481565b6000808154809291906101059061090c565b91905055506040518060600160405280600054815260200183815260200182815250600160008054815260200190815260200160002060008201518160000155602082015181600101908051906020019061016192919061041b565b50604082015181600201908051906020019061017e92919061041b565b509050505050565b60016020528060005260406000206000915090508060000154908060010180546101af90610984565b80601f01602080910402602001604051908101604052809291908181526020018280546101db90610984565b80156102285780601f106101fd57610100808354040283529160200191610228565b820191906000526020600020905b81548152906001019060200180831161020b57829003601f168201915b50505050509080600201805461023d90610984565b80601f016020809104026020016040519081016040528092919081815260200182805461026990610984565b80156102b65780601f1061028b576101008083540402835291602001916102b6565b820191906000526020600020905b81548152906001019060200180831161029957829003601f168201915b5050505050905083565b6102c86104a1565b600160008381526020019081526020016000206040518060600160405290816000820154815260200160018201805461030090610984565b80601f016020809104026020016040519081016040528092919081815260200182805461032c90610984565b80156103795780601f1061034e57610100808354040283529160200191610379565b820191906000526020600020905b81548152906001019060200180831161035c57829003601f168201915b5050505050815260200160028201805461039290610984565b80601f01602080910402602001604051908101604052809291908181526020018280546103be90610984565b801561040b5780601f106103e05761010080835404028352916020019161040b565b820191906000526020600020905b8154815290600101906020018083116103ee57829003601f168201915b5050505050815250509050919050565b82805461042790610984565b90600052602060002090601f0160209004810192826104495760008555610490565b82601f1061046257805160ff1916838001178555610490565b82800160010185558215610490579182015b8281111561048f578251825591602001919060010190610474565b5b50905061049d91906104c2565b5090565b60405180606001604052806000815260200160608152602001606081525090565b5b808211156104db5760008160009055506001016104c3565b5090565b6000819050919050565b6104f2816104df565b82525050565b600060208201905061050d60008301846104e9565b92915050565b6000604051905090565b600080fd5b600080fd5b600080fd5b600080fd5b6000601f19601f8301169050919050565b7f4e487b7100000000000000000000000000000000000000000000000000000000600052604160045260246000fd5b61057a82610531565b810181811067ffffffffffffffff8211171561059957610598610542565b5b80604052505050565b60006105ac610513565b90506105b88282610571565b919050565b600067ffffffffffffffff8211156105d8576105d7610542565b5b6105e182610531565b9050602081019050919050565b82818337600083830152505050565b600061061061060b846105bd565b6105a2565b90508281526020810184848401111561062c5761062b61052c565b5b6106378482856105ee565b509392505050565b600082601f83011261065457610653610527565b5b81356106648482602086016105fd565b91505092915050565b600080604083850312156106845761068361051d565b5b600083013567ffffffffffffffff8111156106a2576106a1610522565b5b6106ae8582860161063f565b925050602083013567ffffffffffffffff8111156106cf576106ce610522565b5b6106db8582860161063f565b9150509250929050565b6106ee816104df565b81146106f957600080fd5b50565b60008135905061070b816106e5565b92915050565b6000602082840312156107275761072661051d565b5b6000610735848285016106fc565b91505092915050565b600081519050919050565b600082825260208201905092915050565b60005b8381101561077857808201518184015260208101905061075d565b83811115610787576000848401525b50505050565b60006107988261073e565b6107a28185610749565b93506107b281856020860161075a565b6107bb81610531565b840191505092915050565b60006060820190506107db60008301866104e9565b81810360208301526107ed818561078d565b90508181036040830152610801818461078d565b9050949350505050565b610814816104df565b82525050565b600082825260208201905092915050565b60006108368261073e565b610840818561081a565b935061085081856020860161075a565b61085981610531565b840191505092915050565b600060608301600083015161087c600086018261080b565b5060208301518482036020860152610894828261082b565b915050604083015184820360408601526108ae828261082b565b9150508091505092915050565b600060208201905081810360008301526108d58184610864565b905092915050565b7f4e487b7100000000000000000000000000000000000000000000000000000000600052601160045260246000fd5b6000610917826104df565b91507fffffffffffffffffffffffffffffffffffffffffffffffffffffffffffffffff82141561094a576109496108dd565b5b600182019050919050565b7f4e487b7100000000000000000000000000000000000000000000000000000000600052602260045260246000fd5b6000600282049050600182168061099c57607f821691505b602082108114156109b0576109af610955565b5b5091905056fea2646970667358221220a6a38889257e3f2d080994c6285663833fa7ecf2322a4f16c5460069cd33385564736f6c634300080a0033",
  "immutableReferences": {},
  "source": "pragma solidity 0.8.10;\n\ncontract prueba1 {\n  uint public count = 0; // state variable\n  \n  struct Contact {\n    uint id;\n    string name;\n    string phone;\n  }\n  \n  constructor() {\n    createContact('Zafar Saleem', '123123123');\n  }\n  \n  mapping(uint => Contact) public contacts;\n  \n  function createContact(string memory _name, string memory _phone) public {\n    count++;\n    contacts[count] = Contact(count, _name, _phone);\n  }\n  function getContact (uint id) public view returns(Contact memory data){\n      return(contacts[id]);\n  }\n}",
  "sourcePath": "/Users/wchaconc/Desktop/Unir_Master_BlockChain/PruebaTFE/prubeweb3/contracts/prueba1.sol",
  "compiler": {
    "name": "solc",
    "version": "0.8.10+commit.fc410830.Emscripten.clang"
  },
  "schemaVersion": "3.4.7",
  "updatedAt": "2022-06-28T21:06:41.541Z",
  "networkType": "ethereum",
  "devdoc": {
    "kind": "dev",
    "methods": {},
    "version": 1
  },
  "userdoc": {
    "kind": "user",
    "methods": {},
    "version": 1
  }
}